:020000040800F2
:10000000F0180120F1010008A13100088D2300083B
:100010009D3100080D0B0008AD3D000800000000F8
:10002000000000000000000000000000C1390008CE
:10003000490B00080000000075380008C5390008A9
:100040000B0200080B0200080B0200080B0200085C
:100050000B0200080B0200080B0200080B0200084C
:100060000B0200080B0200080B0200080B0200083C
:100070000B0200080B020008110B00080B0200081D
:100080000B0200080B0200080B0200080B0200081C
:100090000B0200084D0B00080B0200080B020008C1
:1000A0000B0200080B0200080B0200080B020008FC
:1000B0000B0200080B0200080B0200080B020008EC
:1000C0000B0200080B0200080B0200080B020008DC
:1000D0000B020008213C0008DD3C00080B02000870
:1000E0000B0200080B0200080B0200080B020008BC
:1000F0000B0200080B0200080B0200080B020008AC
:100100000B0200080B0200080B0200080B0200089B
:100110000B0200080B0200080B0200080B0200088B
:100120000B0200080B0200080B0200080B0200087B
:100130000B0200080B0200080B0200080B0200086B
:100140000B0200080B0200080B0200080000000070
:10015000000000000000000000000000000000009F
:100160000000000000000000000000000B0200087A
:100170000B0200080B0200080B0200080B0200082B
:100180000B0200080B0200080B0200080B0200081B
:100190000B020008000000005D0B00080B020008C5
:1001A0006D0B00080B0200080B0200080B02000890
:1001B0000B0200080B0200080B0200080B020008EB
:1001C0000B0200080B0200080B0200080B020008DB
:1001D0000B0200080B020008DFF810D000F008FC4A
:1001E00000F0ACF800480047E1270108F0180120B2
:1001F0000648804706480047FEE7FEE7FEE7FEE7C1
:10020000FEE7FEE7FEE7FEE7FEE7FEE7253A000829
:10021000D90100082DE9F05F0546002092469B4673
:1002200088460646814640241BE02846414647460C
:10023000224600F0A4FA53465A46C01A914110D300
:1002400011461846224600F08BFA2D1A67EB01087A
:100250004F4622460120002100F082FA17EB0009E8
:100260004E41201EA4F10104DFDC484631462A46F7
:100270004346BDE8F09F2DE9F0410024061B2546CA
:1002800071F1000605DA01240027D0EB070067EBC7
:100290000101161E73F1000605DA0027D2EB0702F2
:1002A000012567EB0303FFF7B5FF86460E461746A9
:1002B0009C46AC4204D00025D0EB050E65EB010650
:1002C00024B10020D2EB000760EB030C70463146EE
:1002D0003A466346BDE8F08110B5431A934209D20D
:1002E0008318881803E010F8011D03F8011D521E41
:1002F000F9D210BD40EA01039B0703D009E008C909
:10030000121F08C0042AFAD203E011F8013B00F8DA
:10031000013B521EF9D210BDD2B201E000F8012B10
:10032000491EFBD270470022F6E710B513460A4675
:1003300004461946FFF7F0FF204610BD70B5054C86
:10034000054D04E02046016808448047241DAC4266
:10035000F8D170BDDC510108445201082DE9FE4F6F
:10036000804681EA0300C00F0C46009021F0004156
:1003700023F00045B8EB0200A94105D240462146D2
:1003800090461C460B46024623F00040104347D0DF
:10039000270DC7F30A00C3F30A510290401A0190D7
:1003A00040286BDAC3F3130040F4801B0098924698
:1003B00020B10023D2EB030A63EB0B0B01985946E3
:1003C000C0F14002504600F0CBF906460D465046BB
:1003D0005946019A00F0E3F910EB0800614100244E
:1003E00087EA115284EAE7731A4340D0009A62B355
:1003F000019A012A4FEA075215DC001B61EB02014A
:100400004FF0004202EA0752CDE90042001C41F5DC
:10041000801132462B4600F01AFA03B0BDE8F08F87
:1004200040462146F9E7001B61EB0201001C41F543
:10043000801300185B412018A2F5001747EB030159
:1004400040EAD570B6196D4111E06D084FEA3606E5
:1004500045EAC0754FEA0752001B61EB0201001C20
:1004600041F5801149084FEA3000001951413246E8
:100470002B4603B0BDE8F04F00F0DAB90098012236
:1004800040000023D0EB020263EBE07300982146AA
:100490004FEAE074B8EB000061EB0401E9E783F098
:1004A00000435BE781F0004158E72DE9FE4F81EA08
:1004B000030404F0004421F0004100944FF0000BCD
:1004C00023F0004350EA01045ED052EA03045BD0FB
:1004D000C3F30A54C1F30A552C44A4F2F334019433
:1004E000A0FB0254C1F3130141F48011C3F31303C1
:1004F00043F4801301FB024400FB034E840A970A75
:1005000044EA815447EA8357A4FB076802958D0AA1
:1005100005FB07854FEA932C04FB0C542705029D2D
:100520004FEA065847EA1637B5EB08056EEB070C9D
:10053000870E920E47EA811742EA8312A7FB020157
:10054000B6EB0B0164EB00042B0D43EA0C335E1891
:1005500044EB1C50DA465146E7FB0201C5F3130495
:100560004FEA0B3343EA14534FEA0432019C43EA47
:100570000603A4F10C040294009CCDE900B400F041
:1005800066F903B0BDE8F08F00200146F9E72DE9D8
:10059000F04D81EA030404F0004B21F000451446BD
:1005A0004FF0000A23F0004150EA050220D054EA3F
:1005B00001021DD0C5F30A570246C5F31303C1F368
:1005C0001300C1F30A5640F4801543F48013A7EBDF
:1005D0000608101BD64608F2FD3873EB050002D35F
:1005E00008F1010801E092185B41B8F1000F03DA4D
:1005F00000200146BDE8F08D00204FF48011064632
:1006000084460EE0171B73EB050705D3121B63EB43
:10061000050306434CEA010C49084FEA30009218E2
:100620005B4150EA0107EDD152EA030012D082EAA1
:10063000040083EA0501084305D0101BAB4106D234
:100640000122002306E000224FF0004302E06FF099
:10065000010253101AEB06004CEB085110EB0A0094
:1006600041EB0B01BDE8F04D00F0E2B830B40446B8
:1006700096230800214604D0B62330BC002200F0A7
:10068000A9B820460021F8E70EB5C10F80EAE07056
:100690000844CA07002140F233438DE80E000A46A1
:1006A0000B4600F0D4F803B000BD0EB540F2334164
:1006B00002910021CDE900110A460B4600F0C7F86F
:1006C00003B000BD70B5C1F30A5201F0004500242B
:1006D000C1F3130140F2FF3341F480119A4201DA71
:1006E000002070BD40F233439A42A2F2334203DC51
:1006F000524200F044F800E090402C43F1D04042D8
:1007000070BD00F0004230F000400AD0C10D01F58C
:100710006071C0F3160042EA0151C208400711435C
:10072000704700200146704701F0004330B421F0CB
:10073000004150EA010206D00A0DA2F56072C1F331
:100740001301002A02DC30BC00207047440F44EA49
:10075000C104C100E01830BC00EBC25000F031B859
:10076000202A04DB203A00FA02F100207047914071
:10077000C2F1200320FA03F3194390407047202A66
:1007800004DB203A21FA02F00021704721FA02F33B
:10079000D040C2F120029140084319467047202AF8
:1007A00006DBCB17203A41FA02F043EAE07306E099
:1007B00041FA02F3D040C2F12002914008431946A9
:1007C00070470029A8BF7047401C490008BF20F0AF
:1007D0000100704710B4B0FA80FC00FA0CF050EA47
:1007E000010404BF10BC704749B1CCF1200421FAC8
:1007F00004F411FA0CF118BF012121430843A3EBC3
:100800000C01CB1D4FEA00614FEA102042BF0020CF
:1008100010BC704700EBC35010440029A4BF10BCAB
:100820007047401C490008BF20F0010010BC704711
:1008300010B5141E73F1000408DA401C41F10001E8
:1008400092185B411A4301D120F0010010BD2DE93F
:10085000F04D92469B4611B1B1FA81F202E0B0FA36
:1008600080F220329046FFF77BFF04460F4640EAB5
:100870000A0041EA0B0153465A46084313D0114679
:1008800053EA010019D0C8F140025046FFF777FF44
:1008900005460E46504659464246FFF761FF08435B
:1008A00005D0012004E020463946BDE8F08D002047
:1008B000054346EAE0762C4337430A986305E40A89
:1008C000A0EB08000022FD0A44EA47540A3002D592
:1008D00000200146E9E7010510196941DDE90845F5
:1008E00000196941BDE8F04DA2E770B521F0004361
:1008F00003430CD0C1F30A550024D5EB040564EB87
:100900000403D617AD1AB34102DB0020014670BDC7
:10091000201841EB025170BD2DE9F04D00231A461D
:100920001B1A8A4103DB00200146BDE8F08DC1F3AC
:100930000A52C1F3130141F480154FF0000BD107A7
:1009400002D100186D41521E0027044640F2FF11EB
:10095000384601EB620A3E468046024600204FF4CC
:100960008011FFF70CFFC2197141BB1846EB010063
:10097000B4EB030C75EB000C04D3E41A65EB000533
:1009800017460E46241908F101006D4180463428AF
:10099000E3DDF91946EB0600091BA84103D24FF02D
:1009A000FF32134601E0002213461BEB070046EB23
:1009B0000A51BDE8F04DFFF73BBF000030B5041E03
:1009C00071F1000404DB4FF00044404264EB01018C
:1009D000141E73F1000405DB1C464FF00043524225
:1009E00063EB0403994208BF904230BD002070477A
:1009F000064C074D06E0E06840F0010394E807006C
:100A000098471034AC42F6D3FFF7EAFBBC5101081B
:100A1000DC51010870B58C1810F8015B15F0070364
:100A200001D110F8013B2A1106D110F8012B03E087
:100A300010F8016B01F8016B5B1EF9D12B0705D48F
:100A40000023521E0DD401F8013BFAE710F8013BD8
:100A5000CB1A921C03E013F8015B01F8015B521EF4
:100A6000F9D5A142D8D3002070BD000080B584B074
:100A7000039002910020ADF806000398002804D0EE
:100A8000FFE70298022801D8FFE71AE003980299CD
:100A9000023940F20C02C2F20002128800F036F96C
:100AA000ADF80600BDF806000399029A114401F85A
:100AB000020C9DF807000399029A114401F8010CF9
:100AC000FFE704B080BD000080B584B003900291C0
:100AD00000208DF807000398002804D0FFE7029853
:100AE000022801D8FFE70FE0039802990139FF229D
:100AF00000F042F98DF807009DF807000399029A6B
:100B0000114401F8010CFFE704B080BDFFE7FEE7E8
:100B100080B582B00020C4F2020005F0E1FD00289B
:100B200010D0FFE742F2D860C2F2000001900BF053
:100B300045FE019810F0C0FB0020C4F2020005F051
:100B4000E3FBFFE702B080BD7047000080B542F2D2
:100B50003440C2F2000000F05FFC80BD80B542F27C
:100B60009840C2F2000000F057FC80BD80B542F210
:100B7000FC40C2F2000000F04FFC80BD83B0029048
:100B80004AF20040C4F2000000900298006846F665
:100B90000001C4F20001884205D1FFE7009800F58A
:100BA00054700090FFE70298006846F60041C4F2D6
:100BB0000001884205D1FFE7009800F5D46000905D
:100BC000FFE700980299086402980068D0F8800056
:100BD00020F4F81002990A68496B40EA0140C2F813
:100BE0008000009870300299486402980068D0F83C
:100BF000800020F0706002990A68896B40EA016009
:100C0000C2F880000098B03002998864009800F51E
:100C1000C4700299C864009800F5187002990865BC
:100C2000009800F51E700299486500980190FFE752
:100C30000198009901F55471884208D2FFE70198A4
:100C400000210160FFE7019804300190F0E703B054
:100C50007047000088B007900691059204930698AB
:100C60004068002809D1FFE706980168826800699A
:100C7000104340EA8140039009E0069801688268C9
:100C800000691043084340F080400390FFE7069856
:100C9000016AC2684369D0F818C0C06940EA0160BF
:100CA00040EA0C001843104302900798406D0499E5
:100CB00001EBC10100EBC1000190039801990860AC
:100CC000019804300190029801990860019804305D
:100CD000019000200090FFE700980699C98944F62A
:100CE000F852C0F60102515C88420DD2FFE7059828
:100CF0000099405801990860019804300190FFE77D
:100D0000009804300090E7E708B0704784B01346BD
:100D100002900191ADF802200298002805D1FFE76A
:100D20004FF6FF70ADF80E0022E0FFE70198411E7C
:100D30000191002817D0FFE70298411C029100782A
:100D40008DF80100BDF802009DF801104140C9B2C4
:100D500044F6BC72C0F6010232F8111081EA10208C
:100D6000ADF80200E2E7BDF80200ADF80E00FFE7C3
:100D7000BDF80E0004B0704783B013460290019195
:100D80008DF80320FFE70198411E0191002813D040
:100D9000FFE79DF8030002994A1C02920978484037
:100DA0008DF802009DF8020044F6F841C0F60101FA
:100DB000085C8DF80300E6E79DF8030003B0704778
:100DC00086B0049003910292049890F85C008DF82C
:100DD0000700BDF80C0010F4C07F01D0FFE7FFE76B
:100DE0009DF80700012806D0FFE79DF807000228BC
:100DF00040F0E380FFE704980068806D00909DF864
:100E00000C004007002806D0FFE79DF80000C0074F
:100E1000002848D0FFE79DF80C0010F0380F06D0EE
:100E2000FFE79DF80000800700283CD5FFE7BDF8EC
:100E30000C0010F4E07F06D0FFE79DF800004007AB
:100E4000002830D5FFE79DF80D0010F01E0F06D0EA
:100E5000FFE79DF800000007002824D5FFE79DF874
:100E60000D0010F0E00F06D0FFE79DF80000C0066F
:100E7000002818D5FFE79DF80E008007002806D04F
:100E8000FFE79DF80000800600280CD5FFE79DF8DD
:100E90000E0010F0FC0F0DD0FFE79DF8000040069B
:100EA000002807D4FFE704980068C16D41F00101F4
:100EB000C165FFE79DF80C004007002806D0FFE75A
:100EC0009DF80000C007002848D1FFE79DF80C00FE
:100ED00010F0380F06D0FFE79DF8000080070028CB
:100EE0003CD4FFE7BDF80C0010F4E07F06D0FFE72C
:100EF0009DF800004007002830D4FFE79DF80D0062
:100F000010F01E0F06D0FFE79DF800000007002834
:100F100024D4FFE79DF80D0010F0E00F06D0FFE7A6
:100F20009DF80000C006002818D4FFE79DF80E00C9
:100F30008007002806D0FFE79DF800008006002803
:100F40000CD4FFE79DF80E0010F0FC0F0DD0FFE76A
:100F50009DF800004006002807D5FFE704980068C8
:100F6000C16D41F00201C165FFE79DF80C0000066C
:100F7000002809D5FFE7029804990968D1F8DC2018
:100F80001043C1F8DC00FFE79DF80D00C007002802
:100F900009D0FFE7029804990968D1F8E0201043CE
:100FA000C1F8E000FFE70398049909684A6D10430F
:100FB000486500208DF8170008E00498016E41F0A4
:100FC0000201016601208DF81700FFE79DF8170068
:100FD00006B0704780B586B00490039102920398E2
:100FE0004068002801D1FFE700E0FFE7049890F88F
:100FF0005C00022830D1FFE704980068D0F8C400F4
:101000008002002809D5FFE70498016E41F40071C1
:10101000016601208DF8170027E004980068D0F8D9
:10102000C400C0F30140019004980399029A019B07
:10103000FFF710FE0198012101FA00F0049A1268EE
:10104000C2F8CC00019801FA00F004998865FFE726
:1010500000208DF8170008E00498016E41F00801A7
:10106000016601208DF81700FFE79DF8170006B014
:1010700080BD000087B005900491059890F85C0051
:101080008DF803009DF80300012805D0FFE79DF8C7
:10109000030002283DD1FFE704980068002817D11B
:1010A000FFE704988168C26803694069890741EADB
:1010B000C26141EA0341084303900598006C04991A
:1010C000496800EB810001900398019908601CE0D9
:1010D0000498C168006940EA4170039004988168EF
:1010E000406940EA817002900598406C0499496813
:1010F00000EBC10001900398019908600198043049
:101100000190029801990860FFE700208DF81B000C
:1011100008E00598016E41F00201016601208DF89A
:101120001B00FFE79DF81B0007B0704785B0DDF896
:1011300014C00390029101920093039890F85C0010
:10114000012819D1FFE703980068D0F8800020F04B
:101150003F0002990901019A41EA8201009A41EA9D
:101160004201059A1143084303990968C1F88000B8
:1011700000208DF8130008E00398016E41F004018F
:10118000016601208DF81300FFE79DF8130005B0FC
:101190007047000084B0029001910092029890F88C
:1011A0005C00012824D1FFE7019840280ED1FFE719
:1011B00002980068D0F8800020F40070009940EA9E
:1011C000412002990968C1F880000DE0029800688A
:1011D000D0F8800020F48070009940EA0120029944
:1011E0000968C1F88000FFE700208DF80F0008E0D3
:1011F0000298016E41F00401016601208DF80F0094
:10120000FFE79DF80F0004B07047000081B0009028
:1012100001B0704780B582B00190009142F2344035
:10122000C2F2000000F00EF841F6E071C2F20001D7
:10123000086001980068816921F00101816102B0B4
:1012400080BD000081B000900098006E01B0704732
:101250008AB00890079106920593089890F85C0070
:101260008DF803009DF80300022840F0C380FFE7DB
:101270000798402822D1FFE708980068D0F890002E
:101280000007002809D1FFE70898016E41F480713A
:10129000016601208DF82700B5E008980068D0F8B5
:1012A0009000C0F3012001900898806C019901EB37
:1012B000C10100EBC1000490FFE721E0089800683D
:1012C000D0F898000007002809D1FFE70898016EC0
:1012D00041F48071016601208DF8270093E00898A1
:1012E0000068D0F89800C0F3012001900898C06C05
:1012F000019901EBC10100EBC1000490FFE7FFE79A
:101300000498006800F0804006994860069840689C
:10131000002807D1FFE704980068C0F38A400699C7
:10132000086006E00498006820F0604006990860B4
:10133000FFE70498006800F0005006998860049860
:10134000006800F000400699086104980430049099
:10135000049800880699C8610498006800F4702019
:101360000699C8600498006800F4801006994861E6
:101370000498006800F400100699886104980068D9
:10138000C0F306600699086204980068C00F0699C9
:10139000486204980430049004980390002002905E
:1013A000FFE702980699C98944F6F852C0F601028F
:1013B000515C88420AD2FFE703980299405C059A83
:1013C0005054FFE7029801300290EAE7079840285E
:1013D00006D1FFE7019808990968C1F8940005E073
:1013E000019808990968C1F89C00FFE700208DF872
:1013F000270008E00898016E41F00801016601200D
:101400008DF82700FFE79DF827000AB0704700001D
:1014100081B0009001B0704780B588B00790079800
:101420000068006D00F4E050069007980068406D79
:1014300006990840069007980068006D00F00700C4
:10144000059007980068406D059908400590079839
:101450000068006D00F03800049007980068406D47
:1014600004990840049007980068006D00F471002A
:10147000039007980068406D03990840039007980F
:101480000068006D00F46020029007980068406DCD
:1014900002990840029007980068006D40060028F5
:1014A00010D5FFE707980068406D4006002808D572
:1014B000FFE707980068402101650798FFF7A8FF3C
:1014C000FFE7FFE707980068006DC00500281ED5FC
:1014D000FFE707980068406DC005002816D5FFE7B4
:1014E00007980068D0F8D800009007980068D0F8F6
:1014F000E000009908400090079800684FF4807160
:1015000001650798009900F015FDFFE7FFE70698D1
:10151000002809D0FFE70698079909680865079829
:10152000069900F03DFDFFE70598002809D0FFE788
:1015300005980799096808650798059900F020FB48
:10154000FFE70498002809D0FFE704980799096885
:1015500008650798049900F0B9FCFFE70798006850
:10156000006D8005002811D5FFE707980068406DE1
:101570008005002809D5FFE7079800684FF400713F
:101580000165079800F012FDFFE7FFE70798006884
:10159000006D000600281DD5FFE707980068406D24
:1015A0000006002815D5FFE707980068D0F8D4009A
:1015B000019007980068D0F8DC000199084001907C
:1015C00007980068802101650798019900F0B8FC30
:1015D000FFE7FFE707980068006D8004002811D539
:1015E000FFE707980068406D8004002809D5FFE7F1
:1015F000079800684FF400510165079800F096FCC9
:10160000FFE7FFE707980068006D0004002811D588
:10161000FFE707980068406D0004002809D5FFE740
:10162000079800684FF400410165079800F07AFCC4
:10163000FFE7FFE707980068006D4004002813D516
:10164000FFE707980068406D400400280BD5FFE7CE
:10165000079800684FF4804101650798016E41F0DA
:1016600080010166FFE7FFE70298002809D0FFE745
:10167000029807990968086507980299FFF7CAFD5B
:10168000FFE7039800280AD0FFE703980799096845
:101690000865039807990A6E10430866FFE70798E4
:1016A000006E002804D0FFE70798FFF7AFFDFFE7C3
:1016B00008B080BD80B584B002900298002804D1A3
:1016C000FFE701208DF80F0058E10298006846F20C
:1016D0000041C4F20001884201D1FFE7FFE7029810
:1016E0008068B0F5407F01D1FFE7FFE7029890F8EE
:1016F0005C00002808D1FFE70298002180F85D1007
:10170000029800F03FF9FFE702980068816921F034
:101710001001816100F00AFE0190FFE70298006865
:1017200080690007002815D5FFE700F0FFFD01994B
:10173000401A0B280DD3FFE70298016E41F001011A
:1017400001660298032180F85C1001208DF80F00DB
:1017500014E1E3E702980068816941F001018161C9
:1017600000F0E4FD0190FFE7029800688069C0077F
:10177000002815D1FFE700F0D9FD0199401A0B2888
:101780000DD3FFE70298016E41F001010166029856
:10179000032180F85C1001208DF80F00EEE0E3E7F4
:1017A00002980068816941F0020181610298006835
:1017B00046F20041C4F20001884208D1FFE70298D6
:1017C000406846F20051C4F200010860FFE7029849
:1017D000007C012807D1FFE702980068816921F0A9
:1017E0004001816106E002980068816941F0400192
:1017F0008161FFE70298407C012807D1FFE702984A
:101800000068816941F48041816106E002980068C6
:10181000816921F480418161FFE70298807C012881
:1018200007D1FFE702980068816921F48051816146
:1018300006E002980068816941F480518161FFE708
:1018400002980068806920F4407002990A688968EB
:101850000843906102980068816921F0A4018161C8
:1018600002980068016921F0100101610298C068C6
:10187000012807D1FFE702980068816941F004015F
:1018800081612CE00298C068002826D0FFE702980A
:10189000C068022819D0FFE702980068816941F00A
:1018A0008001816102980068016941F010010161C5
:1018B0000298C068032807D1FFE702980068816991
:1018C00041F020018161FFE706E00298006881692C
:1018D00041F020018161FFE700E0FFE7FFE70298A8
:1018E000016842698369D0F81CC0013B6FF0FF0EAC
:1018F0000EEB0C2C4CEA4363006A013818430023BA
:10190000CFF6FF7303EB02421043C8610298806870
:10191000B0F5407F1BD1FFE702980168426A836AF5
:10192000D0F82CC0013B6FF0FF0E0EEB0C2C43EAFD
:101930000C03006B6FF00F0C0CEB0010184300232E
:10194000CFF6FF7303EB02421043C860FFE7029833
:101950000168C06BD1F8C0201043C1F8C0000298E4
:10196000FFF70CF902980021816502980166029840
:10197000012280F85C208DF80F10FFE79DF80F0022
:1019800004B080BD80B592B01190002010900F90EF
:101990000E900D900C901198006846F20041C4F230
:1019A0000001884248D1FFE741F22400C2F2000062
:1019B0000168013101600068012810D1FFE7FFE7ED
:1019C00041F25800C4F20200016841F00071016068
:1019D000006800F000700B900B98FFE7FFE7FFE74F
:1019E00041F24C00C4F20200016841F002010160C2
:1019F000006800F002000A900A98FFE74FF4407078
:101A00000C9002200D9000200E900F900921109153
:101A100040F20041C4F600010CAA059008461146A8
:101A200000F0C8FA152001210490059A00F090FCFE
:101A3000049800F081FCA1E01198006846F60001CE
:101A4000C4F20001884247D1FFE741F22400C2F20C
:101A500000000168013101600068012810D1FFE732
:101A6000FFE741F25800C4F20200016841F0007142
:101A70000160006800F0007009900998FFE7FFE737
:101A8000FFE741F24C00C4F20200016841F002019C
:101A90000160006800F0020008900898FFE76020ED
:101AA0000C9002200D9000200E900F9009211091B3
:101AB00040F20041C4F600010CAA0390084611460A
:101AC00000F078FA562001210290039A00F040FCC1
:101AD000029800F031FC50E01198006846F6004191
:101AE000C4F20001884247D1FFE741F22400C2F26C
:101AF00000000168013101600068012810D1FFE792
:101B0000FFE741F25800C4F20200016841F00071A1
:101B10000160006800F0007007900798FFE7FFE79A
:101B2000FFE741F24C00C4F20200016841F00201FB
:101B30000160006800F0020006900698FFE7182098
:101B40000C9002200D9000200E900F900B21109110
:101B500040F20041C4F600010CAA0190084611466B
:101B600000F028FA582001210090019A00F0F0FBC3
:101B7000009800F0E1FBFFE7FFE7FFE712B080BD50
:101B800080B588B0079006919DF81800C00700281E
:101B900000F09981FFE7079842F23441C2F2000158
:101BA000884253D1FFE7079841F25431C2F2000155
:101BB0000A1D01F12C034FF0400C05916146FFF71F
:101BC00047FB05994A680A600A68B2F5007F3CD96C
:101BD000FFE741F25430C2F200000068B0F5037F25
:101BE00033D8FFE741F25430C2F200008068002889
:101BF0002BD1FFE741F25430C2F20000006842F6F8
:101C0000DC21C2F2000101EB80004FF2FC71CFF643
:101C1000FF714058002817D0FFE741F25430C2F25C
:101C2000000050F82C1B42F6DC22C2F2000202EB4C
:101C300081014FF2FC72CFF6FF728958049008467A
:101C400004990AF051F9FFE7FFE73BE1079842F2F8
:101C50009841C2F20001884254D1FFE7079841F24F
:101C60005431C2F2000101F1380201F160034FF07A
:101C7000400C03916146FFF7EBFA03998A6B4A63C4
:101C80004A6BB2F5007F3CD9FFE741F25430C2F213
:101C90000000406BB0F5037F33D8FFE741F25430CA
:101CA000C2F20000C06B00282BD1FFE741F2543094
:101CB000C2F20000406B42F6DC21C2F2000101EBEF
:101CC00080004FF62C01CFF6FF714058002817D046
:101CD000FFE741F25430C2F20000416B42F6DC22D1
:101CE000C2F2000202EB81014FF62C02CFF6FF7226
:101CF000895860300290084602990AF0F5F8FFE72B
:101D0000FFE7DEE0079842F2FC41C2F200018842A0
:101D100040F0D680FFE7079841F25431C2F200014B
:101D200001F16C0201F194034FF0400C0191614606
:101D3000FFF78EFA0199CA6E8A668A6EB2F5007F45
:101D40003CD9FFE741F25430C2F20000806EB0F59A
:101D5000037F33D8FFE741F25430C2F20000006F36
:101D600000282BD1FFE741F25430C2F20000806E10
:101D700042F6DC21C2F2000101EB80004FF65C016B
:101D8000CFF6FF714058002817D0FFE741F25430DA
:101D9000C2F20000816E42F6DC22C2F2000202EBC7
:101DA00081014FF65C02CFF6FF72895894300090A3
:101DB000084600990AF098F8FFE7FFE741F254302F
:101DC000C2F20000806E40F61871C2F20001C988AC
:101DD00088420DD1FFE741F25430C2F2000000F119
:101DE000940140F61870C2F200000CF075F9FFE79C
:101DF00041F25430C2F20000806E40F25871C2F2DB
:101E00000001C98888420DD1FFE741F25430C2F287
:101E1000000000F1940140F25870C2F200000CF092
:101E20005BF9FFE741F25430C2F20000806E40F6E9
:101E30006001C2F20001C98888420DD1FFE741F27A
:101E40005430C2F2000000F1940140F66000C2F28A
:101E500000000CF041F9FFE741F25430C2F20000FB
:101E6000C06EB0F5806F0AD9FFE741F25430C2F27C
:101E70000000C06E40F20541884213D3FFE741F2F3
:101E80005430C2F20000C06EB0F5A06F17D9FFE762
:101E900041F25430C2F20000C06E40F2015188425B
:101EA0000DD8FFE741F25430C2F2000000F16801A2
:101EB00042F27050C2F200000EF0EAFEFFE7FFE7C8
:101EC000FFE7FFE7FFE708B080BD000082B00190A8
:101ED000009102B07047000082B00090009890F826
:101EE0005C00012810D1FFE70098022180F85C1007
:101EF00000980068816921F001018161009800214A
:101F000001668DF8071008E00098016E41F00401A9
:101F1000016601208DF80700FFE79DF8070002B079
:101F20007047000081B0009001B0704781B0009010
:101F300001B0704782B00190009102B0704700007C
:101F400080B582B001900091019842F23441C2F212
:101F50000001884207D1FFE742F6DC40C2F20000F0
:101F600007F0B8FC19E0019842F29841C2F2000172
:101F7000884209D1FFE742F6DC40C2F2000000F5DA
:101F80001C7007F0A7FC08E042F6DC40C2F200003B
:101F900000F59C6007F09EFCFFE702B080BD0000EA
:101FA00082B00190009102B07047000081B00090B3
:101FB00001B070478BB00A90099100200890FFE7AC
:101FC000099800680899C840002800F0AC81FFE734
:101FD000099800680899012202FA01F10840079067
:101FE0000798002800F09B81FFE7099840680128C6
:101FF0000FD0FFE70998406802280AD0FFE7099848
:102000004068112805D0FFE70998406812282FD1B1
:10201000FFE70A988068069008984000032101FABB
:1020200000F0069921EA000006900998C068089916
:102030004900884006990843069006980A998860E6
:102040000A98406806900898012101FA00F0069964
:1020500021EA0000069009984068C0F30010089932
:10206000884006990843069006980A994860FFE759
:102070000A98C068069008984000032101FA00F011
:10208000069921EA0000069009988068089949009D
:10209000884006990843069006980A99C8600998EE
:1020A0004068022805D0FFE709984068122826D129
:1020B000FFE70A9808996FF0030202EA5101084409
:1020C000006A0690089800F0070080000F2101FACE
:1020D00000F0069921EA0000069009980069089925
:1020E00001F0070189008840069908430690069888
:1020F0000A99089B02EA530211440862FFE70A9812
:102100000068069008984000032101FA00F0069943
:1021100021EA000006900998406800F00300089941
:102120004900884006990843069006980A99086075
:102130000998C079C006002840F1F080FFE7FFE76A
:1021400041F26000C4F20200016841F00101016047
:10215000006800F0010005900598FFE7089820F05E
:1021600003000821C4F2010140580690089800F0CD
:10217000030080000F2101FA00F0069921EA000017
:1021800006900A98B0F1904F03D1FFE70020049029
:1021900042E00A9840F20041C4F60001884203D1AF
:1021A000FFE70120039034E00A9840F60001C4F6EE
:1021B0000001884203D1FFE70220029026E00A983E
:1021C00040F60041C4F60001884203D1FFE7032036
:1021D000019018E00A9841F20001C4F6000188421B
:1021E00003D1FFE7042000900AE00A9841F2004181
:1021F000C4F600010622884208BF05220092FFE7CC
:1022000000980190FFE701980290FFE70298039081
:10221000FFE703980490FFE70498089901F0030191
:10222000890088400699084306900698089921F08D
:1022300003010822C4F20102885040F20040C4F2B7
:102240000100006806900798069921EA00000690B0
:1022500009988079C007002805D0FFE707980699FC
:1022600008430690FFE7069840F20041C4F20101DE
:10227000086040F20440C4F201000068069007982C
:10228000069921EA000006900998807980070028C5
:1022900005D5FFE70798069908430690FFE70698DB
:1022A00040F20441C4F20101086040F20840C4F267
:1022B0000100006806900798069921EA0000069040
:1022C00009988079C006002805D5FFE70798069988
:1022D00008430690FFE7069840F20841C4F2010166
:1022E000086040F20C40C4F20100006806900798B4
:1022F000069921EA00000690099880798006002856
:1023000005D5FFE70798069908430690FFE706986A
:1023100040F20C41C4F201010860FFE7FFE70898B2
:10232000013008904CE60BB07047000043F290502B
:10233000C2F200000068704780B582B001468DF897
:1023400007009DF9070000910FF056FF02B080BD15
:1023500080B588B003468DF81F000691059203935F
:102360000FF064FF04909DF91F000499069A059BE5
:102370000290084611461A4600F014FF0299019097
:10238000084601990FF05AFF08B080BDFFE7FEE74D
:1023900084B00390029101920398009000980299F2
:1023A00044F6F042C0F60102515C405847F6F07125
:1023B0008843019908430099029BD25C885004B07D
:1023C0007047000010B584B0039002910192039809
:1023D0000299019A9368D2F80CC0D2F810E05469BF
:1023E00043EA0C0343EA0E032343D2F818C043EA3E
:1023F0000C03D2F81CC043EA0C03926A1A43FFF79D
:10240000C7FF03980299019A526800F031F80398C7
:102410000299019A126800F03DF803980299019A16
:10242000126A00F009F803980299019A526A00F0C2
:1024300043F8002004B010BD84B0039002910192D3
:10244000039800900098029944F6F042C0F6010209
:10245000515C084440684FF6FF7188430199084376
:102460000099029BD25C1144486004B070470000A0
:1024700084B0039002910192039800900198009912
:10248000029A44F6F043C0F601039A5C1144C86016
:1024900004B0704784B003900291019203980090B9
:1024A00001980099029A44F6F043C0F601039A5C41
:1024B0001144886004B0704784B003900291019287
:1024C00003980021C4F2020148406FF0070101EABD
:1024D000D010009002988000009900EB810040F637
:1024E0000001C4F20201405820F0FF00019A10439D
:1024F000029A9200009B02EB8302505004B0704796
:1025000080B588B0059004910498006890FAA0F016
:1025100006900698002804D1FFE720208DF81F00C0
:1025200005E00698B0FA80F08DF81F00FFE79DF8EF
:102530001F000390FFE7049800680399C840002833
:102540004FD0FFE7049800680399012202FA01F1D5
:1025500008400290029800283FD0FFE704984068A6
:10256000012805D0FFE704984068022810D1FFE752
:1025700005980299049A926800F058F90598049910
:102580000A68C96801911146019A00F0FBF8FFE75B
:1025900005980299049A126900F004F904984068B9
:1025A000022813D1FFE70298FF2807D8FFE7059814
:1025B0000299049A526900F017F806E0059802990A
:1025C000049A526900F054F8FFE7FFE70598029972
:1025D000049A526800F092F8FFE7039801300390E4
:1025E000A9E7002008B080BD8AB00590049103924D
:1025F0000598006A049991FAA1F1069106990029BB
:10260000029004D1FFE720208DF81F0005E0069816
:10261000B0FA80F08DF81F00FFE79DF81F008000E2
:102620000F2101FA00F0029921EA0000039A049BAD
:1026300093FAA3F30893089B002B0190009204D116
:10264000FFE720208DF8270005E00898B0FA80F019
:102650008DF82700FFE79DF827008000009901FA18
:1026600000F0019A1043059B18620AB07047000001
:102670008AB00590049103920598406A0499090A6A
:1026800091FAA1F1069106990029029004D1FFE781
:1026900020208DF81F0005E00698B0FA80F08DF834
:1026A0001F00FFE79DF81F0080000F2101FA00F0D6
:1026B000029921EA0000039A049B1B0A93FAA3F3F0
:1026C0000893089B002B0190009204D1FFE7202083
:1026D0008DF8270005E00898B0FA80F08DF8270003
:1026E000FFE79DF827008000009901FA00F0019AA9
:1026F0001043059B58620AB0704700008AB00590ED
:102700000491039205980068049991FAA1F1069149
:1027100006990029029004D1FFE720208DF81F00C0
:1027200005E00698B0FA80F08DF81F00FFE79DF8ED
:102730001F004000032101FA00F0029921EA000085
:10274000039A049B93FAA3F30893089B002B019030
:10275000009204D1FFE720208DF8270005E00898BB
:10276000B0FA80F08DF82700FFE79DF827004000C1
:10277000009901FA00F0019A1043059B18600AB015
:102780007047000083B00290019100920298406867
:1027900001998843009A514308430299486003B065
:1027A000704700008AB00590049103920598C068B4
:1027B000049991FAA1F1069106990029029004D199
:1027C000FFE720208DF81F0005E00698B0FA80F0A2
:1027D0008DF81F00FFE79DF81F004000032101FA5C
:1027E00000F0029921EA0000039A049B93FAA3F3F4
:1027F0000893089B002B0190009204D1FFE7202052
:102800008DF8270005E00898B0FA80F08DF82700D1
:10281000FFE79DF827004000009901FA00F0019AB7
:102820001043059BD8600AB0704700008AB005903D
:102830000491039205988068049991FAA1F1069198
:1028400006990029029004D1FFE720208DF81F008F
:1028500005E00698B0FA80F08DF81F00FFE79DF8BC
:102860001F004000032101FA00F0029921EA000054
:10287000039A049B93FAA3F30893089B002B0190FF
:10288000009204D1FFE720208DF8270005E008988A
:10289000B0FA80F08DF82700FFE79DF82700400090
:1028A000009901FA00F0019A1043059B98600AB064
:1028B0007047000041F20800C4F20200006800F016
:1028C000F000704741F20800C4F20200006800F412
:1028D000E060704741F20800C4F20200006800F4B2
:1028E0006050704741F20800C4F20200006800F036
:1028F0000C00704780B584B00390002002900398CC
:10290000C02840D1FFE7039800F088F80146B0F5F1
:10291000400F01912DD0FFE74020C0F2C000019987
:1029200081420CD0FFE78020C0F2C00001998142B3
:1029300009D0FFE70198B0F1C01F10D01AE000F0F5
:10294000D9FF02901EE000F045F9002806D0FFE70D
:1029500042F20040C0F2F4000290FFE712E000F003
:1029600041F9002804D0FFE74FF400400290FFE750
:1029700008E0FFE700F0BEFF00F07EFF00F092FFEE
:102980000290FFE7FFE70398B0F5407F42D1FFE7F1
:10299000039800F043F80146B0F1407F00912FD03A
:1029A000FFE740F20010C0F20030009981420DD0E4
:1029B000FFE740F20020C0F200300099814209D0C8
:1029C000FFE70098B0F1032F10D01AE000F092FF5B
:1029D00002901EE000F0FEF8002806D0FFE742F269
:1029E0000040C0F2F4000290FFE712E000F0FAF8B5
:1029F000002804D0FFE74FF400400290FFE708E012
:102A0000FFE700F077FF00F037FF00F04BFF029088
:102A1000FFE7FFE7029804B080BD000081B000909E
:102A200041F28800C4F2020000680099084040EAC0
:102A3000014001B07047000080B586B005900020CD
:102A400004900598032832D1FFE7059800F0B4F808
:102A5000A0F540300146032803911FD80399DFE811
:102A600001F01C02061200F045FF04901EE000F089
:102A7000B1F8002806D0FFE742F20040C0F2F400AF
:102A80000490FFE712E000F0ADF8002804D0FFE763
:102A90004FF400400490FFE708E0FFE700F02AFF52
:102AA00000F0EAFE00F012FF0490FFE780E00598D6
:102AB0000C2837D1FFE7059800F07EF8A0F54020FC
:102AC00001460C28029124D80299DFE801F0212266
:102AD0002222072222220B222222170000F00AFFC4
:102AE00004901EE000F076F8002806D0FFE742F2DE
:102AF0000040C0F2F4000490FFE712E000F072F82A
:102B0000002804D0FFE74FF400400490FFE708E0FE
:102B1000FFE700F0EFFE00F0AFFE00F0C3FE049010
:102B2000FFE744E00598302840D1FFE7059800F022
:102B300043F80146B0F5401F01912DD0FFE710206A
:102B4000C0F23000019981420CD0FFE72020C0F292
:102B500030000199814209D0FFE70198B0F1301FA0
:102B600010D01AE000F0C6FE04901EE000F032F82B
:102B7000002806D0FFE742F20040C0F2F4000490C3
:102B8000FFE712E000F02EF8002804D0FFE74FF432
:102B900000400490FFE708E0FFE700F0ABFE00F024
:102BA0006BFE00F07FFE0490FFE7FFE7FFE7FFE723
:102BB000049806B080BD000081B0009041F288000A
:102BC000C4F2020000680099084040EA014001B0E8
:102BD0007047000041F20000C4F202000068C0F338
:102BE0008020704741F29000C4F202000068C0F3F8
:102BF0004000704741F20C00C4F20200006800F08F
:102C0000F000704741F20C00C4F20200006800F0CE
:102C10000300704741F20C00C4F202000068C0F3E8
:102C20000620704741F20C00C4F20200006800F078
:102C3000C060704781B00090009840F21801C2F265
:102C40000001086001B0704781B0009000984169B0
:102C500041F00101416101B07047000080B584B0CE
:102C600003900291039800680190039842F6004196
:102C7000C4F2010188422DD0FFE70398B0F1804FE4
:102C800028D0FFE7039840F20041C4F200018842D7
:102C900020D0FFE7039840F60001C4F2000188420B
:102CA00018D0FFE7039840F60041C4F200018842C3
:102CB00010D0FFE7039843F20041C4F201018842BB
:102CC00008D0FFE7039845F20001C4F201018842F1
:102CD00008D1FFE7019820F0700002994968084385
:102CE0000190FFE7039842F60041C4F201018842D7
:102CF00045D0FFE70398B0F1804F40D0FFE703983D
:102D000040F20041C4F20001884238D0FFE7039846
:102D100040F60001C4F20001884230D0FFE703987A
:102D200040F60041C4F20001884228D0FFE7039832
:102D300043F20041C4F20101884220D0FFE703982A
:102D400044F20001C4F20101884218D0FFE7039861
:102D500044F20041C4F20101884210D0FFE7039819
:102D600044F60001C4F20101884208D0FFE703984D
:102D700045F20001C4F20101884208D1FFE7019841
:102D800020F440700299C96808430190FFE7019858
:102D90000399086003980299896800F0C7F80398BE
:102DA0000299098800F0CAF8039842F60041C4F27B
:102DB0000101884228D0FFE7039843F20041C4F2A2
:102DC0000101884220D0FFE7039844F20001C4F2D9
:102DD0000101884218D0FFE7039844F20041C4F291
:102DE0000101884210D0FFE7039844F60001C4F2C5
:102DF0000101884208D0FFE7039845F20001C4F2C0
:102E00000101884206D1FFE703980299096900F0A1
:102E10009DF8FFE70398FFF717FF002004B080BD7F
:102E200080B586B005900491039201208DF80B00C7
:102E300004980128019018D0FFE7019810281BD0B2
:102E4000FFE70198B0F5807F1DD0FFE70198B0F54E
:102E5000805F1FD0FFE70198B0F5803F21D0FFE7EA
:102E60000198B0F5801F23D029E00598039900F060
:102E7000D1F98DF80B0023E00598039900F05AFA78
:102E80008DF80B001CE00598039900F0E7FA8DF827
:102E90000B0015E00598039900F072FB8DF80B000C
:102EA0000EE00598039900F0FFFB8DF80B0007E09A
:102EB0000598039900F06AFC8DF80B0000E0FFE72D
:102EC0009DF80B0006B080BD82B001900091009883
:102ED0000199486302B0704782B001900091009858
:102EE0000199886302B0704782B001900091009808
:102EF0000199C86302B0704782B0019000910098B8
:102F00000199086402B0704782B001900091019865
:102F1000806C0099019A916402B0704782B0019070
:102F2000009100980199C86402B0704782B0019086
:102F3000009100980199C86202B0704782B0019078
:102F4000009100980199886202B0704782B00190A8
:102F5000009100980199086302B0704780B586B06F
:102F60000590049101208DF80F0000200290059833
:102F700000F090F8002840F08880FFE7059800688E
:102F800046F6F311CEF6FF71084004998A680B6982
:102F9000D1F814C0C9691A4342EA0C02114308432C
:102FA0000599086005980499C96800F0E9F8059842
:102FB0000499896900F0C8F8059843F60001C4F245
:102FC0000101884205D1FFE70320FFF735FD02909C
:102FD00039E0059844F20041C4F20001884205D16D
:102FE000FFE70C20FFF728FD02902BE0059844F640
:102FF0000001C4F20001884205D1FFE73020FFF74D
:103000001BFD02901DE0059844F60041C4F200014A
:10301000884205D1FFE7C020FFF76CFC02900FE06B
:10302000059845F20001C4F20001884206D1FFE78D
:103030004FF44070FFF75EFC029000E0FFE7FFE70F
:10304000FFE7FFE7FFE70298002818D0FFE70498A2
:103050004068002813D0FFE700208DF80F00059886
:103060000299049A1368D2F804C0D269EE46CEF8E9
:1030700000C001921A46019B00F014F8FFE7059882
:103080000499096800F06EF8FFE79DF80F0006B09C
:1030900080BD000081B000900098006800F0010041
:1030A00001B0704786B0DDF818C005900491039216
:1030B000029303980C2801D3FFE742E0069800280A
:1030C00001D1FFE73CE00298B0F5004F23D1FFE7C4
:1030D00004989DF80C1044F60862C0F6010252F8FC
:1030E0002110B0FBF1F04000069900EB5100B0FB5D
:1030F000F1F080B2019001984FF6F0710840009015
:10310000019800F00E00009941EA500000900098EC
:103110000599C86013E004989DF80C1044F6086205
:10312000C0F6010252F82110B0FBF1F0069900EB55
:103130005100B0FBF1F080B20599C860FFE7FFE7EE
:10314000FFE706B07047000082B00190009101983F
:10315000806820F44070009908430199886002B0AB
:103160007047000082B0019000910198C06A20F081
:103170000F00BDF8001008430199C86202B0704703
:1031800082B0019000910198406820F4405000996D
:1031900008430199486002B070470000FFE7FEE76E
:1031A000FFE7FEE788B0079006910592079800F0C8
:1031B000070004900498C0F10700052803D3FFE737
:1031C0000420019004E00498C0F107000190FFE79B
:1031D0000198039004980430062803D8FFE70020E4
:1031E000009003E0049803380090FFE700980290F5
:1031F00006980399012202FA01F101390840029967
:103200008840059B02FA01F101391940084308B0D2
:103210007047000080B586B0059004910598016A5A
:1032200021F0010101620598006A0290059840684A
:103230000190059880690390039820F003000390A3
:1032400003984FF68F71CFF6FE7108400499096814
:1032500008430390029820F002000499096908438A
:103260000290029820F001000499496808430290F6
:10327000059842F60041C4F20101884228D0FFE7D8
:10328000059843F20041C4F20101884220D0FFE7D3
:10329000059844F20001C4F20101884218D0FFE70A
:1032A000059844F20041C4F20101884210D0FFE7C2
:1032B000059844F60001C4F20101884208D0FFE7F6
:1032C000059845F20001C4F20101884220D1FFE7D0
:1032D000029820F008000499496940EA81000290B0
:1032E000029820F004000499896840EA8100029065
:1032F000019820F48070049989690843019001982D
:1033000020F400700499C96940EA41000190FFE788
:103310000198059948600398059988610598049972
:10332000C968FFF7D1FD029805990862002006B030
:1033300080BD000080B586B0059004910598016AB3
:1033400021F0100101620598006A0290059840681A
:103350000190059880690390039820F440700390D1
:10336000039848F6FF71CFF6FF6108400499096899
:1033700040EA01200390029820F020000499096996
:1033800040EA01100290029820F010000499496868
:1033900040EA01100290059842F60041C4F2010192
:1033A000884228D0FFE7059843F20041C4F20101AA
:1033B000884220D0FFE7059844F20001C4F20101E1
:1033C000884218D0FFE7059844F20041C4F2010199
:1033D000884210D0FFE7059844F60001C4F20101CD
:1033E000884208D0FFE7059845F20001C4F20101C8
:1033F000884221D1FFE7029820F0800004994969B2
:1034000040EA81100290029820F0400004998968F7
:1034100040EA81100290019820F480600499896943
:1034200040EA81000190019820F400600499C96984
:1034300040EAC1000190FFE70198059948600398B0
:103440000599886105980499C968FFF745FD0298B8
:1034500005990862002006B080BD000080B586B0E6
:10346000059004910598016A21F480710162059824
:10347000006A02900598406801900598C069039021
:10348000039820F00300039003984FF68F71CFF656
:10349000FE7108400499096808430390029820F4DB
:1034A00000700499096940EA01200290029820F412
:1034B00080700499496840EA01200290059842F61C
:1034C0000041C4F20101884228D0FFE7059843F289
:1034D0000041C4F20101884220D0FFE7059844F280
:1034E0000001C4F20101884218D0FFE7059844F2B8
:1034F0000041C4F20101884210D0FFE7059844F66C
:103500000001C4F20101884208D0FFE7059845F2A6
:103510000001C4F20101884221D1FFE7029820F4A2
:1035200000600499496940EA81200290029820F4E1
:1035300080600499896840EA81200290019820F413
:1035400080500499896940EA01100190019820F4A3
:1035500000500499C96940EA41100190FFE70198C1
:103560000599486003980599C86105980499C96848
:10357000FFF7BAFC029805990862002006B080BDEA
:1035800080B586B0059004910598016A21F48051B8
:1035900001620598006A02900598406801900598BC
:1035A000C0690390039820F440700390039848F694
:1035B000FF71CFF6FF6108400499096840EA0120D5
:1035C0000390029820F400500499096940EA013000
:1035D0000290029820F480500499496840EA013032
:1035E0000290059842F60041C4F20101884228D0B9
:1035F000FFE7059843F20041C4F20101884220D060
:10360000FFE7059844F20001C4F20101884218D096
:10361000FFE7059844F20041C4F20101884210D04E
:10362000FFE7059844F60001C4F20101884208D082
:10363000FFE7059845F20001C4F20101884221D15B
:10364000FFE7029820F400400499496940EA81307C
:103650000290029820F480400499896840EA813001
:103660000290019820F480400499896940EA811011
:103670000190019820F400400499C96940EAC11002
:103680000190FFE701980599486003980599C86182
:1036900005980499C968FFF72FFC029805990862FC
:1036A000002006B080BD000080B584B00390029178
:1036B0000398016A21F4803101620398006A009046
:1036C0000398006D019001984FF68F71CFF6FE714F
:1036D00008400299096808430190009820F40030DE
:1036E0000299096940EA01400090009820F4803076
:1036F0000299496840EA01400090039842F600416F
:10370000C4F20101884228D0FFE7039843F2004148
:10371000C4F20101884220D0FFE7039844F200017F
:10372000C4F20101884218D0FFE7039844F2004137
:10373000C4F20101884210D0FFE7039844F600016B
:10374000C4F20101884208D0FFE7039845F2000166
:10375000C4F2010188420BD1FFE70398406820F4CE
:1037600080300299896940EA012003994860FFE7A7
:1037700001980399086503980299C968FFF7C4FB8B
:10378000009803990862002004B080BD80B584B021
:10379000039002910398016A21F480110162039859
:1037A000006A00900398006D0190019848F6FF713F
:1037B000CFF6FF6108400299096840EA01200190B4
:1037C000009820F400100299096940EA0150009025
:1037D000009820F480100299496840EA0150009056
:1037E000039842F60041C4F20101884228D0FFE765
:1037F000039843F20041C4F20101884220D0FFE760
:10380000039844F20001C4F20101884218D0FFE796
:10381000039844F20041C4F20101884210D0FFE74E
:10382000039844F60001C4F20101884208D0FFE782
:10383000039845F20001C4F2010188420BD1FFE771
:103840000398406820F480200299896940EA812029
:1038500003994860FFE70198039908650398029966
:10386000C968FFF75BFB009803990862002004B069
:1038700080BD00007047000080B582B001900198C3
:103880000090FFF717F8C0B2000944F6D841C0F61F
:103890000101085C00F01F00009921FA00F002B05D
:1038A00080BD000080B582B0019001980090FFF7C4
:1038B00009F8000A44F6E841C0F60101085C00F08E
:1038C0001F00009921FA00F002B080BD80B582B0DF
:1038D000019001980090FEF7FDFFC00A44F6E84110
:1038E000C0F60101085C00F01F00009921FA00F009
:1038F00002B080BD80B582B0FEF7F4FF0146042817
:10390000009108D0FFE7009808280AD0FFE7009848
:103910000C280CD00FE042F20040C0F2F4000190FD
:103920000FE041F20020C0F27A00019009E000F0BF
:103930000BF8019005E042F20040C0F2F400019063
:10394000FFE7019802B080BD80B586B0FFF75AF955
:10395000049004980228039004D0FFE703980328FA
:1039600006D00BE042F20040C0F2F40005900BE0FC
:1039700041F20020C0F27A00059005E042F20040DA
:10398000C0F2F4000590FFE705980290FFF742F9B6
:10399000029948430190FFF72DF9012101EB101026
:1039A0000199B1FBF0F00090FFF73CF9400E0221C5
:1039B00001EB40000099B1FBF0F006B080BD0000C3
:1039C0007047000080B543F27040C2F20000016809
:1039D0000131016040F2BC40C2F2000000780028D2
:1039E0001FD0FFE742F6A440C2F200000188013177
:1039F0000180418801314180818801318180C18805
:103A00000131C18001890131018141890131418147
:103A1000818901318181C1890131C18100F012F8B0
:103A2000FFE780BD4EF68850CEF20000016841F4F9
:103A3000700101604EF60850CEF200004FF00061B8
:103A40000160704780B594B0139000F019FB11919C
:103A5000109001F0B9FD00F013FB109A801A139A30
:103A6000506113980088022810DBFFE713980021AB
:103A7000018000F005FB0F910E9001F0DDFC00F0DD
:103A8000FFFA0E9A801A139A9061FFE71398408804
:103A9000052810DBFFE713980021418000F0F0FAC1
:103AA0000D910C9001F0C6FC00F0EAFA0C9A801A15
:103AB000139AD061FFE7139880880A2810DBFFE78C
:103AC00013980021818000F0DBFA0B910A9001F03D
:103AD000AFFC00F0D5FA0A9A801A139A1062FFE739
:103AE0001398C088142810DBFFE713980021C180C9
:103AF00000F0C6FA0991089001F02CFA00F0C0FA23
:103B0000089A801A139A5062FFE7139800893228A6
:103B100010DBFFE713980021018100F0B1FA079153
:103B2000069001F015FA00F0ABFA069A801A139A83
:103B30009062FFE713984089642810DBFFE7139831
:103B40000021418100F09CFA0591049001F0FEF9FA
:103B500000F096FA049A801A139AD062FFE713983D
:103B60008089B0F5FA7F10DBFFE71398002181818F
:103B700000F086FA0391029000F022FA00F080FA39
:103B8000029A801A139A1063FFE71398C089B0F560
:103B90007A7F10DBFFE713980021C18100F070FAF3
:103BA0000191009000F00AFA00F06AFA009A801A77
:103BB000139A5063FFE7139841698269C369D0F88B
:103BC00020C04FF4FA7E02FB0EF24FF47A7E01FB26
:103BD0000E21C82203FB021164220CFB0211426A6F
:103BE000322302FB0311826A02EB820201EB8201A3
:103BF000C26A02EB820201EB4201026B01EB42015D
:103C0000426B114400EE101AB8EE400A9FED031A01
:103C100080EE010A80ED040A14B080BD00247449CE
:103C200080B586B043F60000C4F2010002F0A2FFA6
:103C3000002850D0FFE743F60000C4F201000590D1
:103C400002F028FE059802F003FD0021C4F20201F3
:103C5000002204900846114602F04CFC43F29450B6
:103C6000C2F200000078A52827D1FFE743F2945064
:103C7000C2F20000407803281FD1FFE743F29450BE
:103C8000C2F20000432100F093F800280DD0FFE7B6
:103C900043F29450C2F2000000F144014322039029
:103CA00008460399FCF718FBFFE743F29450C2F271
:103CB0000000DE3008F082FDFFE70020C4F20200C1
:103CC000002144220290019102F0A4FB0298019984
:103CD00002F04EFBFFE706B080BD000080B58AB061
:103CE00044F20040C4F2000002F03CFF00285AD029
:103CF000FFE744F20040C4F20000099002F0C2FD68
:103D0000099802F09DFC0021C4F2020102220890F1
:103D1000084607911146069202F03CFB42F6D0217C
:103D2000C2F2000108700798069902F033FBC0F157
:103D3000240041F25821C2F2000108800798069A37
:103D40000591114602F0B2FB0598018812291CD199
:103D5000FFE742F69040C2F2000042F66C41C2F228
:103D6000000112220490FCF7B7FA42F62441C2F295
:103D7000000103900846049A0291114604F088F964
:103D800002982A3008F01AFDFFE70020C4F2020072
:103D9000022124220190009102F020FB0198009959
:103DA00002F0C2FAFFE70AB080BD0000FFE7FEE7BD
:103DB00080B586B0049003910020ADF80A00049805
:103DC000002804D0FFE70398022803D8FFE700206B
:103DD000059029E004980399023940F20C02C2F2DE
:103DE00000021288FCF792FFADF80A009DF80A0065
:103DF0000499039A114411F8021C0022884201928E
:103E00000DD1FFE79DF80B000499039A114411F8B6
:103E1000011C401AB0FA80F040090190FFE70198B8
:103E200000F001000590FFE7059806B080BD000096
:103E300080B50EF069FA80BD80B50EF067FB0EF01C
:103E4000C7FB0EF041FC80BD80B50EF045FA80BD89
:103E500080B50EF0B9FA80BD80B50EF03FFB80BD95
:103E600080B50EF021FA0EF08BFB0EF011FC0EF077
:103E700053FC0EF05FFC0EF06BFC0EF077FC0EF0C6
:103E800085FC0EF093FC0EF0A1FC0EF0A9FB0EF0E9
:103E9000B7FB0EF0BDFB0EF0C3FB0EF0C9FB0EF03E
:103EA000CFFB0EF0D5FB0EF0DBFB0EF0E1FB0EF0CE
:103EB000E7FB0EF011FC0EF017FC0EF01DFC0EF0EF
:103EC00023FC80BD80B50EF031FB80BD80B50EF0C7
:103ED00057FA80BD80B50EF031FB80BD80B50EF085
:103EE00003FA80BD80B50EF057FA80BD80B50EF0A4
:103EF0005FFA80BD80B50EF073FA0EF061FB0EF034
:103F0000DBFB80BD80B50EF0F7F980BD80B50EF00B
:103F1000EDFA80BD80B50EF001FB80BD80B50EF0DE
:103F2000CBF980BD80B50EF081FA80BD80B50EF072
:103F3000F3F90EF02DFB80BD80B50EF059FA80BD6F
:103F400080B50EF0F1F90EF02FFB0EF0A9FB80BD4D
:103F500080B50EF009FA80BD80B50EF0B5F980BDD0
:103F600080B50EF0E9F980BD80B50EF0F1F980BDA5
:103F700080B50EF0C3FA80BD80B584B040F2180061
:103F8000C2F20000006844F6D351C1F26201A0FB06
:103F9000010189090390084601F02AFF029002F00E
:103FA000F1FD0421002202F0CFF84FF0FF31019023
:103FB0000846019901F0FAFF04B080BD7047000087
:103FC0007047000080B582B04FF4FA7001F0DAFD5E
:103FD00041F29820C2F2000007F014FB41F2543085
:103FE000C2F2000042F23441C2F20001009006F039
:103FF000DDFD42F29841C2F20001009806F0D6FDC4
:1040000042F2FC41C2F20001009806F0CFFD07F039
:1040100035FD01F08BFE42F62440C2F2000004F0B0
:104020009DF943F29450C2F2000008F05DFC0020BC
:104030008DF80700FFE79DF8070041F24801C2F242
:1040400000010968884213DAFFE741F24C00C2F22E
:10405000000000689DF8071050F821000168C96849
:104060008847FFE79DF8070001308DF80700E2E779
:1040700040F2BC40C2F200000121017002B080BDDC
:1040800080B584B043F27040C2F2000000680021A5
:1040900003910290029803994FF47A7251434EF2C1
:1040A0001403CEF20003D3F800C04EF2180ECEF285
:1040B000000EDEF800E0ACEB0E0C0CFB02FC1B6803
:1040C000BCFBF3F3E0FB02310191009300980199EE
:1040D00004B080BD2DE9F04F81B02DED028BADF520
:1040E000127D0DF5D07CDDF89CE2A69CA59DA49EDA
:1040F000A39FDDF88882DDF88492DDF880A2DDF8E8
:104100007CB264909E9863936292CDF8F891CDF85A
:10411000F4A1CDF8F0B17B9063987A90DDF88891A6
:10412000CDF8E491CDF8E0E17794769575967497A3
:10413000CDF8CC8172918CED090ACCED080A729908
:1041400091ED000AB5EE400AF1EE10FACDF884C107
:1041500040F04B84FFE700206F906E906D906C9064
:104160007998729948606F9872998860619890ED1B
:10417000050AB0EE001A80EE010A729981ED030A79
:1041800090ED0B0AB3EE042A20EE020A90ED113AEC
:1041900023EE023A30EE430A90ED093AB2EE004ABD
:1041A00023EE043A90ED075AB2EE086A25EE065A5D
:1041B00033EE053A90ED085A23EE053A30EE430A05
:1041C00090ED053AB0EE087A23EE073AD0ED040AF6
:1041D00030EEC33A8DED600AB0EE450AF0EE410ACA
:1041E0008DED5F1A8DED5E2A8DED5D4A8DED5C6A79
:1041F0008DED5B7A8DED5A3A0FF0CEFC9DED5A1A9B
:1042000021EE000A9DED601A31EE000A10EE100A50
:10421000FCF777FA41EC180B7098809003207F90A0
:104220008099599008468DED568BFCF76AFA41EC5F
:10423000100B7F988DED540BFCF726FA41EC110B17
:104240009DED540B0EF080FE51EC100B53905291EB
:10425000539A529BFCF782F841EC100B9DED561BD4
:1042600051EC110B53EC102BFCF791F941EC100BB6
:1042700051EC100BFCF758FA72990861619890EDB7
:10428000112AB3EE0E3A22EE032A90ED0B4A24EEE9
:10429000034A32EE442A90ED094AB2EE0C5A24EE5B
:1042A000054A90ED076AB3EE007A26EE076A34EE0F
:1042B000064A90ED086A24EE064A32EE042A90ED92
:1042C000054ADDED5B2A24EE224AD0ED043A73EE76
:1042D000A33A34EE634AB0EE460ADDED5F0A8DED97
:1042E000513A8DED505A8DED4F7A8DED4E2A8DED70
:1042F0004D4A0FF051FC9DED4D2A22EE000A9DED36
:104300004E2A32EE000A10EE100AFCF7FAF941ECE0
:10431000110B709882900420819082994C900846ED
:104320008DED4A1BFCF7EDF941EC100B81988DEDFA
:10433000480BFCF7A9F941EC110B9DED480B0EF071
:1043400003FE51EC100B47904691479A469BFCF7B1
:1043500005F841EC100B9DED4A1B51EC110B53EC91
:10436000102BFCF714F941EC100B51EC100BFCF77F
:10437000DBF972994861619890ED0B2A9DED5C3AEA
:1043800022EE032A90ED114A24EE034A32EE442A2B
:1043900090ED094AB1EE085A24EE054A90ED076AFD
:1043A00026EE056A34EE064A90ED086A24EE064AC7
:1043B00032EE442A90ED054A90ED047A37EE444AF5
:1043C000B0EE460ADDED5F0A8DED455A8DED442ACB
:1043D0008DED434A0FF0E0FB9DED432A22EE000AEB
:1043E0009DED442A32EE000A10EE100AFCF789F91E
:1043F00041EC110B70988490052083908499429031
:1044000008468DED401BFCF77CF941EC100B8398BE
:104410008DED3E0BFCF738F941EC110B9DED3E0B99
:104420000EF092FD51EC100B3D903C913D9A3C9B5F
:10443000FBF794FF41EC100B9DED401B51EC110B71
:1044400053EC102BFCF7A3F841EC100B51EC100BC4
:10445000FCF76AF9729988617A987299C8616F98C5
:1044600072990862619890ED052A9DED5F3A82EE9F
:10447000032A729981ED092A90ED0C2A9DED5E4A7E
:1044800022EE042A90ED125A25EE045A32EE452A05
:1044900090ED065A9DED5D6A25EE065A90ED077A7D
:1044A000DDED5C2A27EE227A35EE075A90ED087A88
:1044B00025EE075A32EE452A90ED055ADDED5B3ABE
:1044C00025EE235AD0ED044A34EEC55AB0EE470A21
:1044D000F0EE430A8DED3B2A8DED3A5A0FF05CFB6E
:1044E0009DED3A2A22EE000A9DED3B2A32EE000AAB
:1044F00010EE100AFCF705F941EC110B709886904C
:104500005998859086988DED381BFCF7FAF841ECA8
:10451000100B85988DED360BFCF7B6F841EC110BBE
:104520009DED360B0EF010FD51EC100B35903491D3
:10453000359A349BFBF712FF41EC100B9DED381BB5
:1045400051EC110B53EC102BFCF721F841EC100B44
:1045500051EC100BFCF7E8F872998862619890EDC5
:10456000122A9DED513A22EE032A90ED0C4A24EED8
:10457000034A32EE442A90ED064A9DED505A24EE4D
:10458000054A90ED076A9DED4F7A26EE076A34EEF4
:10459000064A90ED086A24EE064A32EE042A90EDAF
:1045A000054ADDED5B2A24EE224AD0ED043A73EE93
:1045B000A33A34EE634AB0EE460ADDED5F0A8DEDB4
:1045C000332A8DED324A0FF0E7FA9DED322A22EEC2
:1045D000000A9DED332A32EE000A10EE100AFCF7B5
:1045E00090F841EC110B709888904C9887908898BF
:1045F0008DED301BFCF785F841EC100B87988DEDA5
:104600002E0BFCF741F841EC110B9DED2E0B0EF03B
:104610009BFC51EC100B2D902C912D9A2C9BFBF7B1
:104620009DFE41EC100B9DED301B51EC110B53EC3A
:10463000102BFBF7ACFF41EC100B51EC100BFCF70F
:1046400073F87299C862619890ED0C2A9DED5C3AFE
:1046500022EE032A90ED124A24EE034A32EE442A57
:1046600090ED064A9DED455A24EE054A90ED076A05
:1046700026EE056A34EE064A90ED086A24EE064AF4
:1046800032EE442A90ED054A90ED047A37EE444A22
:10469000B0EE460ADDED5F0A8DED2B2A8DED2A4A3C
:1046A0000FF07AFA9DED2A2A22EE000A9DED2B2AC0
:1046B00032EE000A10EE100AFCF723F841EC110B61
:1046C00070988A90429889908A988DED281BFCF703
:1046D00018F841EC100B89988DED260BFBF7D4FFF1
:1046E00041EC110B9DED260B0EF02EFC51EC100B46
:1046F00025902491259A249BFBF730FE41EC100B6A
:104700009DED281B51EC110B53EC102BFBF73FFFD9
:1047100041EC100B51EC100BFCF706F87299086392
:104720007B98729948636F9872998863619890ED4D
:10473000052A9DED5F3A82EE032A729981ED0F2AD8
:1047400090ED0D2A9DED5E4A22EE042A90ED135A5B
:1047500025EE045A32EE452A90ED065A9DED5D6A2B
:1047600025EE065A90ED077ADDED5C2A27EE227AD7
:1047700035EE075A90ED087A25EE075A32EE452AB3
:1047800090ED055ADDED5B3A25EE235AD0ED044A53
:1047900034EEC55AB0EE470AF0EE430A8DED232AF7
:1047A0008DED225A0FF0F8F99DED222A22EE000A33
:1047B0009DED232A32EE000A10EE100AFBF7A1FF4E
:1047C00041EC110B70988C9059988B908C988DEDD2
:1047D000201BFBF796FF41EC100B8B988DED1E0B09
:1047E000FBF752FF41EC110B9DED1E0B0EF0ACFBE5
:1047F00051EC100B1D901C911D9A1C9BFBF7AEFDFC
:1048000041EC100B9DED201B51EC110B53EC102BC8
:10481000FBF7BDFE41EC100B51EC100BFBF784FFD6
:1048200072990864619890ED132A9DED513A22EE39
:10483000032A90ED0D4A24EE034A32EE442A90ED0D
:10484000064A9DED505A24EE054A90ED076A9DED0B
:104850004F7A26EE076A34EE064A90ED086A24EE97
:10486000064A32EE042A90ED054ADDED5B2A24EE7D
:10487000224AD0ED043A73EEA33A34EE634AB0EE26
:10488000460ADDED5F0A8DED1B2A8DED1A4A0FF009
:1048900083F99DED1A2A22EE000A9DED1B2A32EEC5
:1048A000000A10EE100AFBF72CFF41EC110B709878
:1048B0008E904C988D908E988DED181BFBF721FFF4
:1048C00041EC100B8D988DED160BFBF7DDFE41ECE6
:1048D000110B9DED160B0EF037FB51EC100B1590E4
:1048E0001491159A149BFBF739FD41EC100B9DEDCB
:1048F000181B51EC110B53EC102BFBF748FE41EC4D
:10490000100B51EC100BFBF70FFF72994864619884
:1049100090ED0D2A9DED5C3A22EE032A90ED134AAC
:1049200024EE034A32EE442A90ED064A9DED455AA4
:1049300024EE054A90ED076A26EE056A34EE064A33
:1049400090ED086A24EE064A32EE442A90ED054ABC
:1049500090ED047A37EE444AB0EE460ADDED5F0A88
:104960008DED132A8DED124A0FF016F99DED122AE6
:1049700022EE000A9DED132A32EE000A10EE100A14
:10498000FBF7BFFE41EC110B7098909042988F900E
:1049900090988DED101BFBF7B4FE41EC100B8F9837
:1049A0008DED0E0BFBF770FE41EC110B9DED0E0B28
:1049B0000EF0CAFA51EC100B0D900C910D9A0C9B55
:1049C000FBF7CCFC41EC100B9DED101B51EC110BD7
:1049D00053EC102BFBF7DBFD41EC100B51EC100BF3
:1049E000FBF7A2FE72998864FFE77298503006F0D8
:1049F00011FF729890ED001A31EE000A80ED000A66
:104A0000649802F089FA619890ED0B0A90ED111A02
:104A100030EE410AB0EE001AF0EE410A8DED0B1AAD
:104A20000FF0BAF8619890ED0C1A90ED122A31EE61
:104A3000421A8DED0A0AB0EE410ADDED0B0A0FF0C5
:104A4000ABF89DED0A1A31EE000A619890ED0D2A3F
:104A500090ED133A32EE432A8DED090AB0EE420A88
:104A6000DDED0B0A0FF098F89DED091A31EE000A02
:104A7000619880ED290A90ED290A0FF0C4FC619835
:104A800080ED030A90ED0B0A90ED111A30EE410A09
:104A900090ED031A80EE010A80ED020A90ED0C0AF7
:104AA00090ED121A30EE410A90ED031A80EE010AE1
:104AB00080ED010A90ED0D0A90ED131A30EE410AD7
:104AC00090ED031A80EE010A80ED000A729991EDD3
:104AD000000A90ED081AB4EE410AF1EE10FA00F364
:104AE000D081FFE700208DF89F01FFE79DF89F012F
:104AF000052825DCFFE772989DF89F1100EB8102E5
:104B000092ED010A90ED001A02EE101AF8EE420A38
:104B10008DED080AB0EE410A0FF03EF89DED081A3F
:104B200021EE000A649890ED001A31EE000A80ED43
:104B3000000AFFE79DF89F0101308DF89F01D5E73E
:104B400000208DF89E01FFE79DF89E01052825DCD9
:104B5000FFE772989DF89E1100EB810292ED070A23
:104B600090ED001A02EE101AF8EE420A8DED070AD7
:104B7000B0EE410A0FF010F89DED071A21EE000A81
:104B8000649890ED011A31EE000A80ED010AFFE70A
:104B90009DF89E0101308DF89E01D5E700208DF82B
:104BA0009D01FFE79DF89D01052825DCFFE7729830
:104BB0009DF89D1100EB810292ED0D0A90ED001A17
:104BC00002EE101AF8EE420A8DED060AB0EE410A26
:104BD0000EF0E2FF9DED061A21EE000A649890EDBA
:104BE000021A31EE000A80ED020AFFE79DF89D01EE
:104BF00001308DF89D01D5E701208DF89C01FFE77C
:104C00009DF89C0105282CDCFFE79DF89C0100EE37
:104C1000100AB8EEC00A729901EB800292ED011AF7
:104C200020EE010A91ED001A013802EE100AF8EEAA
:104C3000C20A8DED050AB0EE410A0EF0ADFF9DED02
:104C4000051A21EE000A649890ED031A31EE000A6D
:104C500080ED030AFFE79DF89C0101308DF89C016F
:104C6000CEE701208DF89B01FFE79DF89B01052809
:104C70002CDCFFE79DF89B0100EE100AB8EEC00A9D
:104C8000729901EB800292ED071A20EE010A91ED74
:104C9000001A013802EE100AF8EEC20A8DED040A7D
:104CA000B0EE410A0EF078FF9DED041A21EE000AE5
:104CB000649890ED041A31EE000A80ED040AFFE7D3
:104CC0009DF89B0101308DF89B01CEE701208DF806
:104CD0009A01FFE79DF89A0105282CDCFFE79DF873
:104CE0009A0100EE100AB8EEC00A729901EB800238
:104CF00092ED0D1A20EE010A91ED001A013802EE34
:104D0000100AF8EEC20A8DED030AB0EE410A0EF069
:104D100043FF9DED031A21EE000A649890ED051AF9
:104D200031EE000A80ED050AFFE79DF89A01013097
:104D30008DF89A01CEE702208DF89901FFE79DF8E2
:104D4000990105282EDCFFE79DF89901411E41439A
:104D500000EE101AB8EEC00A729901EB800292EDD3
:104D6000011A20EE010A91ED001A023802EE100A33
:104D7000F8EEC20A8DED020AB0EE410A0EF00CFF09
:104D80009DED021A21EE000A649890ED061A31EEAC
:104D9000000A80ED060AFFE79DF8990101308DF8C1
:104DA0009901CCE702208DF89801FFE79DF8980162
:104DB00005282EDCFFE79DF89801411E414300EED7
:104DC000101AB8EEC00A729901EB800292ED071A30
:104DD00020EE010A91ED001A023802EE100AF8EEF8
:104DE000C20A8DED010AB0EE410A0EF0D5FE9DED2E
:104DF000011A21EE000A649890ED071A31EE000ABC
:104E000080ED070AFFE79DF8980101308DF89801C1
:104E1000CCE702208DF89701FFE79DF89701052860
:104E20002EDCFFE79DF89701411E414300EE101A6A
:104E3000B8EEC00A729901EB800292ED0D1A20EED5
:104E4000010A91ED001A023802EE100AF8EEC20AC9
:104E50008DED000AB0EE410A0EF09EFE9DED001AA7
:104E600021EE000A649890ED081A31EE000A80EDF8
:104E7000080AFFE79DF8970101308DF89701CCE70C
:104E80005DE0619890ED0B0A90ED021A90ED092A11
:104E900021EE021A729991ED002A90ED083A32EE55
:104EA000432A21EE021A30EE010A649981ED000ACC
:104EB00090ED0C0A90ED011A90ED092A21EE021AEC
:104EC000729A92ED002A90ED083A32EE432A21EED2
:104ED000021A30EE010A81ED010A90ED0D0A90ED03
:104EE000001A90ED092A21EE021A729A92ED002A18
:104EF00090ED083A32EE432A21EE021A30EE010A12
:104F000081ED020A90ED020A90ED091A20EE010AE5
:104F100081ED030A90ED010A90ED091A20EE010AD5
:104F200081ED040A90ED000A90ED091A20EE010AC5
:104F300081ED050A00228A61CA610A62FFE70DF568
:104F4000127DBDEC028B01B0BDE8F08F7047000010
:104F50007047000080B582B000208DF80700FFE7A1
:104F60009DF8070041F24C21C2F200010968884215
:104F700024DAFFE741F24820C2F2000000689DF801
:104F8000071050F821000A3007F02CFC00280ED042
:104F9000FFE740F22870C2F200000121017040F2E8
:104FA0002970C2F20000017801310170FFE7FFE7CC
:104FB0009DF8070001308DF80700D1E700208DF83B
:104FC0000600FFE79DF8060041F25421C2F20001FD
:104FD0000968884224DAFFE741F25020C2F200005B
:104FE00000689DF8061050F82100403007F0FAFBE9
:104FF00000280ED0FFE740F22870C2F20000012125
:10500000017040F22970C2F2000001780131017094
:10501000FFE7FFE79DF8060001308DF80600D1E7B5
:1050200040F22870C2F20000007800280DD0FFE79F
:1050300043F27860C2F200000121017040F2287052
:10504000C2F200000021017010E043F27860C2F269
:1050500000000021017040F22870C2F200000170CF
:1050600040F22970C2F200000170FFE700208DF8C5
:105070000500FFE79DF8050041F24C21C2F2000156
:105080000968884243DAFFE741F24820C2F2000093
:1050900000689DF8051050F82100B0F92C02512845
:1050A0002EDBFFE741F24820C2F2000000689DF8C5
:1050B000051050F821000078002821D0FFE741F2C8
:1050C0004820C2F2000000689DF8051050F8210049
:1050D0000078052814D0FFE741F24820C2F2000012
:1050E00000689DF8051050F821000078032807D0CB
:1050F000FFE740F25070C2F2000001210170FFE7AB
:10510000FFE79DF8050001308DF80500B2E70020AB
:105110008DF80400FFE79DF8040041F25421C2F22B
:105120000001096888422EDAFFE741F25020C2F2FE
:10513000000000689DF8041050F8210090ED340A3A
:10514000B2EE081AB4EE410AF1EE10FA0DD0FFE704
:1051500041F25020C2F2000000689DF8041050F89F
:105160002100407B0E2807D1FFE740F25070C2F2C9
:10517000000001210170FFE7FFE79DF80400013006
:105180008DF80400C7E702B080BD000082B00120A6
:105190000190019880F3138800F090FF80B59AB0D9
:1051A00042F23440C2F2000046F20041C4F2000173
:1051B0000160002141608160C1600122027441747C
:1051C00081741123436182610523C3610423036257
:1051D00042638263C1630D900C910B92FCF76AFAF3
:1051E0000C991491159116910B9A1792189140F2FF
:1051F000FF73199314A90D9B0A901846FBF73AFF09
:105200004FF080410E910C990F91022210920B9B4E
:105210001193129113910EA9DDF834C009906046E4
:105220000892FBF727FF69460C9A0A600D990790D0
:1052300008460899089A0C9BFBF778FF40210D9AC5
:10524000069010460B9AFBF7A5FF0D9905900846AE
:10525000FCF742FE0D99049008460B990C9AFBF757
:10526000AFFD4FF460210D9A039010460C9AFBF7A6
:10527000A7FD802107220D9B02901846FBF7A0FD99
:105280001AB080BD80B59AB042F29840C2F20000D8
:1052900046F60001C4F20001016000214160816016
:1052A000C1600122027441748174112343618261DF
:1052B0000523C3610423036242638263C1630D90CB
:1052C0000C910B92FCF7F6F90C991491159116912B
:1052D0000B9A1792189140F2FF73199314A90D9B22
:1052E0000A901846FBF7C6FE4FF080410E910C99CC
:1052F0000F91022210920B9B1193129113910EA900
:10530000DDF834C0099060460892FBF7B3FE6946A9
:105310000C9A0A600D99079008460899089A0C9B08
:10532000FBF704FF40210D9A069010460B9AFBF7FD
:1053300031FF0D9905900846FCF7CEFD0D990490BC
:1053400008460B990C9AFBF73BFD4FF460210D9A30
:10535000039010460C9AFBF733FD802107220D9B2A
:1053600002901846FBF72CFD1AB080BD80B592B0B4
:1053700042F2FC40C2F2000046F60041C4F20001D5
:105380000160002141608160C160012202744174AA
:1053900081741123436182610523C3610423036285
:1053A00042638163C1630B900A910992FCF782F911
:1053B0000A990C910D910E91099A0F92109140F259
:1053C000FF7311930CA90B9B08901846FBF752FE34
:1053D00069460A9A0A6002210B9B079018460691BB
:1053E000069A0A9BFBF7A2FE40210B9A05901046F5
:1053F000099AFBF7CFFE0B9904900846FCF76CFD69
:105400000B990390084609990A9AFBF7D9FC4FF4C7
:1054100060210B9A029010460A9AFBF7D1FC80217A
:1054200007220B9B01901846FBF7CAFC12B080BD07
:10543000704700007047000080B582B042F62440FB
:10544000C2F20000009002F0A5FE009802F0ECFE0F
:1054500000208DF80700FFE79DF8070041F24801A2
:10546000C2F20001096888424FDAFFE742F62440A1
:10547000C2F200002A3007F0ABF9002822D0FFE783
:1054800040F6D030C2F20000007801281AD1FFE7C0
:1054900041F24C00C2F2000000689DF8071050F87D
:1054A0002100007900280DD1FFE741F24C00C2F243
:1054B000000000689DF8071050F821000168096994
:1054C00088471BE041F24C00C2F2000000689DF8E2
:1054D000071050F821004079C00700280DD0FFE7E1
:1054E00041F24C00C2F2000000689DF8071050F82D
:1054F0002100016809698847FFE7FFE7FFE79DF89A
:10550000070001308DF80700A6E700F0D9F940F652
:10551000D030C2F200000078002807D1FFE741F246
:105520005430C2F2000005F0E5FAFFE741F25430D2
:10553000C2F2000005F064FB00208DF80600FFE7D2
:105540009DF8060042F6F031C2F200010978884267
:1055500012DAFFE742F6F430C2F2000000689DF86C
:10556000061050F8210007F013F9FFE79DF8060038
:1055700001308DF80600E3E742F62440C2F2000055
:105580002A3007F025F9002807D1FFE740F6D03090
:10559000C2F2000000210170FFE742F62440C2F28F
:1055A0000000C07A02280DD1FFE742F62440C2F283
:1055B000000090F90E000130002803D1FFE7FFF74B
:1055C000E5FDFFE702B080BD704700002DE9F04324
:1055D000ADB02B902A912B9842F23441C2F20001D7
:1055E000884245D1FFE72A98016842688368D0F86D
:1055F0000CC0D0F810E044692494CDF88CE0CDF8CC
:1056000088C0219320921F918169C269036AD0F8F2
:1056100024C0806A2990CDF8A0C0279326922591B6
:105620001F99209A219B2298DDF88CC0DDF890E02C
:10563000259C269D279E289FDDF8A480E946C9F871
:105640001C80C9F81870C9F81460C9F81050C9F85E
:105650000C40C9F808E0C9F804C0C9F8000042F6D7
:10566000DC40C2F2000004F0BDF88DF8B30095E014
:105670002B9842F29841C2F20001884247D1FFE7DD
:105680002A98016842688368D0F80CC0D0F810E00E
:1056900044691994CDF860E0CDF85CC0169315927A
:1056A00014918169C269036AD0F824C0806A1E908F
:1056B000CDF874C01C931B921A911499159A169BDD
:1056C0001798DDF860C0DDF864E01A9C1B9D1C9EF5
:1056D0001D9FDDF87880E946C9F81C80C9F818706C
:1056E000C9F81460C9F81050C9F80C40C9F808E0AE
:1056F000C9F804C0C9F8000042F6DC40C2F200005C
:1057000000F51C7004F06EF88DF8B30046E02A989E
:10571000016842688368D0F80CC0D0F810E0446992
:105720000E94CDF834E0CDF830C00B930A92099175
:105730008169C269036AD0F824C0806A1390CDF8E9
:1057400048C0119310920F9109990A9A0B9B0C98DB
:10575000DDF834C0DDF838E00F9C109D119E129FDB
:10576000DDF84C80E946C9F81C80C9F81870C9F802
:105770001460C9F81050C9F80C40C9F808E0C9F81D
:1057800004C0C9F8000042F6DC40C2F2000000F597
:105790009C6004F027F88DF8B300FFE79DF8B30094
:1057A0002DB0BDE8F083000080B582B0042000F089
:1057B000B3FCFFE700F0A8FC042801D0FFE7F9E7FD
:1057C00001F098FA00F0AAFBFFE700F0D7FB0128F0
:1057D00001D0FFE7F9E700F0ADFCFFE700F036FE8F
:1057E000012801D0FFE7F9E700F0A2FBFFE700F096
:1057F000CDFB012801D0FFE7F9E703201021552256
:10580000002301F0FDF901F017FA00F09BFBFFE720
:1058100000F0C4FB012801D0FFE7F9E7032000F006
:105820003DFF802000F02CFFFFE700F021FF0C2857
:1058300001D0FFE7F9E74EF6FC50CEF20000016818
:1058400041F08071016041F20000CEF20000016879
:1058500041F00101016041F20400CEF2000000219C
:105860000160FFE741F20400CEF200000068632807
:1058700001D8FFE7F6E70020019000F001FF019852
:1058800000F036FF019800F041FF4FF68060C0F64F
:105890002120FDF7CFF94FF0007001F045F9019894
:1058A00001F0D8F84FF4403001F04CF94FF44020AB
:1058B00001F048F94FF4401001F044F902B080BD06
:1058C0002DE9F047ACB040F21030C2F2000002F017
:1058D000FFFD40F28840C2F20000007800284BD162
:1058E000FFE740F21030C2F20000016942698369AB
:1058F000D0F81CC0D0F820E0406A42F69034C2F2E2
:1059000000046061C4F810E0C4F80CC0A3606260D9
:10591000216020686168A268E368D4F810C0D4F8F8
:1059200014E043F2D045C2F20005C5F814E0C5F812
:1059300010C0EB60AA606960286020680D940C9527
:10594000FAF7DFFE41EC100B9FED771B53EC112BA8
:1059500051EC100BFAF702FD41EC100B51EC100B5F
:10596000FAF7E2FE0C9908600D98026843F2AC4326
:10597000C2F200031A60FFE740F28840C2F2000062
:105980000078022840F0CC80FFE742F69030C2F267
:105990000000016842688368D0F80CC0D0F810E0BD
:1059A00040692290CDF884E0CDF880C01F931E920C
:1059B0001D9143F2D040C2F2000001684268836842
:1059C000D0F80CC0D0F810E040691C90CDF86CE025
:1059D000CDF868C01993189217911D9A1E9B1F98B5
:1059E0002099DDF884C0DDF888E0179C189D199E89
:1059F0001A9FDDF86C80DDF87090EA46CAF82490B2
:105A0000CAF82080CAF81C70CAF81860CAF8145086
:105A1000CAF81040CAF80CE0CAF808C0CAF8041066
:105A2000CAF8000040F22041C2F2000123A89FED15
:105A3000400AF7EE000AFEF74DFB23982499259AB9
:105A4000269BDDF89CC0DDF8A0E043F2AC44C2F236
:105A50000004C4F814E0C4F810C0E360A260616000
:105A6000206029982A992B9A2262E161A06120681E
:105A70006168A268E368D4F810C0D4F814E0CDF8E7
:105A80004CE0CDF848C0119310920F910E90A06990
:105A9000E169226A1692159114900E990F9A109B43
:105AA0001198DDF848C0DDF84CE0149C159D169E59
:105AB0006F467E613D61FC60C7F808E0C7F804C02E
:105AC000386040F21030C2F200000B9003F0D4F9BD
:105AD00040F2B810C2F2000090ED000ADFED150AA6
