:020000040800F2
:1000000098180120F1010008A13100088D23000893
:100010009D3100080D0B0008AD3D000800000000F8
:10002000000000000000000000000000C1390008CE
:10003000490B00080000000075380008C5390008A9
:100040000B0200080B0200080B0200080B0200085C
:100050000B0200080B0200080B0200080B0200084C
:100060000B0200080B0200080B0200080B0200083C
:100070000B0200080B020008110B00080B0200081D
:100080000B0200080B0200080B0200080B0200081C
:100090000B0200084D0B00080B0200080B020008C1
:1000A0000B0200080B0200080B0200080B020008FC
:1000B0000B0200080B0200080B0200080B020008EC
:1000C0000B0200080B0200080B0200080B020008DC
:1000D0000B020008213C0008DD3C00080B02000870
:1000E0000B0200080B0200080B0200080B020008BC
:1000F0000B0200080B0200080B0200080B020008AC
:100100000B0200080B0200080B0200080B0200089B
:100110000B0200080B0200080B0200080B0200088B
:100120000B0200080B0200080B0200080B0200087B
:100130000B0200080B0200080B0200080B0200086B
:100140000B0200080B0200080B0200080000000070
:10015000000000000000000000000000000000009F
:100160000000000000000000000000000B0200087A
:100170000B0200080B0200080B0200080B0200082B
:100180000B0200080B0200080B0200080B0200081B
:100190000B020008000000005D0B00080B020008C5
:1001A0006D0B00080B0200080B0200080B02000890
:1001B0000B0200080B0200080B0200080B020008EB
:1001C0000B0200080B0200080B0200080B020008DB
:1001D0000B0200080B020008DFF810D000F008FC4A
:1001E00000F0ACF800480047D91F0108981801201A
:1001F0000648804706480047FEE7FEE7FEE7FEE7C1
:10020000FEE7FEE7FEE7FEE7FEE7FEE7253A000829
:10021000D90100082DE9F05F0546002092469B4673
:1002200088460646814640241BE02846414647460C
:10023000224600F0A4FA53465A46C01A914110D300
:1002400011461846224600F08BFA2D1A67EB01087A
:100250004F4622460120002100F082FA17EB0009E8
:100260004E41201EA4F10104DFDC484631462A46F7
:100270004346BDE8F09F2DE9F0410024061B2546CA
:1002800071F1000605DA01240027D0EB070067EBC7
:100290000101161E73F1000605DA0027D2EB0702F2
:1002A000012567EB0303FFF7B5FF86460E461746A9
:1002B0009C46AC4204D00025D0EB050E65EB010650
:1002C00024B10020D2EB000760EB030C70463146EE
:1002D0003A466346BDE8F08110B5431A934209D20D
:1002E0008318881803E010F8011D03F8011D521E41
:1002F000F9D210BD40EA01039B0703D009E008C909
:10030000121F08C0042AFAD203E011F8013B00F8DA
:10031000013B521EF9D210BDD2B201E000F8012B10
:10032000491EFBD270470022F6E710B513460A4675
:1003300004461946FFF7F0FF204610BD70B5054C86
:10034000054D04E02046016808448047241DAC4266
:10035000F8D170BD54480108BC4801082DE9FE4F92
:10036000804681EA0300C00F0C46009021F0004156
:1003700023F00045B8EB0200A94105D240462146D2
:1003800090461C460B46024623F00040104347D0DF
:10039000270DC7F30A00C3F30A510290401A0190D7
:1003A00040286BDAC3F3130040F4801B0098924698
:1003B00020B10023D2EB030A63EB0B0B01985946E3
:1003C000C0F14002504600F0CBF906460D465046BB
:1003D0005946019A00F0E3F910EB0800614100244E
:1003E00087EA115284EAE7731A4340D0009A62B355
:1003F000019A012A4FEA075215DC001B61EB02014A
:100400004FF0004202EA0752CDE90042001C41F5DC
:10041000801132462B4600F01AFA03B0BDE8F08F87
:1004200040462146F9E7001B61EB0201001C41F543
:10043000801300185B412018A2F5001747EB030159
:1004400040EAD570B6196D4111E06D084FEA3606E5
:1004500045EAC0754FEA0752001B61EB0201001C20
:1004600041F5801149084FEA3000001951413246E8
:100470002B4603B0BDE8F04F00F0DAB90098012236
:1004800040000023D0EB020263EBE07300982146AA
:100490004FEAE074B8EB000061EB0401E9E783F098
:1004A00000435BE781F0004158E72DE9FE4F81EA08
:1004B000030404F0004421F0004100944FF0000BCD
:1004C00023F0004350EA01045ED052EA03045BD0FB
:1004D000C3F30A54C1F30A552C44A4F2F334019433
:1004E000A0FB0254C1F3130141F48011C3F31303C1
:1004F00043F4801301FB024400FB034E840A970A75
:1005000044EA815447EA8357A4FB076802958D0AA1
:1005100005FB07854FEA932C04FB0C542705029D2D
:100520004FEA065847EA1637B5EB08056EEB070C9D
:10053000870E920E47EA811742EA8312A7FB020157
:10054000B6EB0B0164EB00042B0D43EA0C335E1891
:1005500044EB1C50DA465146E7FB0201C5F3130495
:100560004FEA0B3343EA14534FEA0432019C43EA47
:100570000603A4F10C040294009CCDE900B400F041
:1005800066F903B0BDE8F08F00200146F9E72DE9D8
:10059000F04D81EA030404F0004B21F000451446BD
:1005A0004FF0000A23F0004150EA050220D054EA3F
:1005B00001021DD0C5F30A570246C5F31303C1F368
:1005C0001300C1F30A5640F4801543F48013A7EBDF
:1005D0000608101BD64608F2FD3873EB050002D35F
:1005E00008F1010801E092185B41B8F1000F03DA4D
:1005F00000200146BDE8F08D00204FF48011064632
:1006000084460EE0171B73EB050705D3121B63EB43
:10061000050306434CEA010C49084FEA30009218E2
:100620005B4150EA0107EDD152EA030012D082EAA1
:10063000040083EA0501084305D0101BAB4106D234
:100640000122002306E000224FF0004302E06FF099
:10065000010253101AEB06004CEB085110EB0A0094
:1006600041EB0B01BDE8F04D00F0E2B830B40446B8
:1006700096230800214604D0B62330BC002200F0A7
:10068000A9B820460021F8E70EB5C10F80EAE07056
:100690000844CA07002140F233438DE80E000A46A1
:1006A0000B4600F0D4F803B000BD0EB540F2334164
:1006B00002910021CDE900110A460B4600F0C7F86F
:1006C00003B000BD70B5C1F30A5201F0004500242B
:1006D000C1F3130140F2FF3341F480119A4201DA71
:1006E000002070BD40F233439A42A2F2334203DC51
:1006F000524200F044F800E090402C43F1D04042D8
:1007000070BD00F0004230F000400AD0C10D01F58C
:100710006071C0F3160042EA0151C208400711435C
:10072000704700200146704701F0004330B421F0CB
:10073000004150EA010206D00A0DA2F56072C1F331
:100740001301002A02DC30BC00207047440F44EA49
:10075000C104C100E01830BC00EBC25000F031B859
:10076000202A04DB203A00FA02F100207047914071
:10077000C2F1200320FA03F3194390407047202A66
:1007800004DB203A21FA02F00021704721FA02F33B
:10079000D040C2F120029140084319467047202AF8
:1007A00006DBCB17203A41FA02F043EAE07306E099
:1007B00041FA02F3D040C2F12002914008431946A9
:1007C00070470029A8BF7047401C490008BF20F0AF
:1007D0000100704710B4B0FA80FC00FA0CF050EA47
:1007E000010404BF10BC704749B1CCF1200421FAC8
:1007F00004F411FA0CF118BF012121430843A3EBC3
:100800000C01CB1D4FEA00614FEA102042BF0020CF
:1008100010BC704700EBC35010440029A4BF10BCAB
:100820007047401C490008BF20F0010010BC704711
:1008300010B5141E73F1000408DA401C41F10001E8
:1008400092185B411A4301D120F0010010BD2DE93F
:10085000F04D92469B4611B1B1FA81F202E0B0FA36
:1008600080F220329046FFF77BFF04460F4640EAB5
:100870000A0041EA0B0153465A46084313D0114679
:1008800053EA010019D0C8F140025046FFF777FF44
:1008900005460E46504659464246FFF761FF08435B
:1008A00005D0012004E020463946BDE8F08D002047
:1008B000054346EAE0762C4337430A986305E40A89
:1008C000A0EB08000022FD0A44EA47540A3002D592
:1008D00000200146E9E7010510196941DDE90845F5
:1008E00000196941BDE8F04DA2E770B521F0004361
:1008F00003430CD0C1F30A550024D5EB040564EB87
:100900000403D617AD1AB34102DB0020014670BDC7
:10091000201841EB025170BD2DE9F04D00231A461D
:100920001B1A8A4103DB00200146BDE8F08DC1F3AC
:100930000A52C1F3130141F480154FF0000BD107A7
:1009400002D100186D41521E0027044640F2FF11EB
:10095000384601EB620A3E468046024600204FF4CC
:100960008011FFF70CFFC2197141BB1846EB010063
:10097000B4EB030C75EB000C04D3E41A65EB000533
:1009800017460E46241908F101006D4180463428AF
:10099000E3DDF91946EB0600091BA84103D24FF02D
:1009A000FF32134601E0002213461BEB070046EB23
:1009B0000A51BDE8F04DFFF73BBF000030B5041E03
:1009C00071F1000404DB4FF00044404264EB01018C
:1009D000141E73F1000405DB1C464FF00043524225
:1009E00063EB0403994208BF904230BD002070477A
:1009F000064C074D06E0E06840F0010394E807006C
:100A000098471034AC42F6D3FFF7EAFB34480108AC
:100A10005448010870B58C1810F8015B15F00703F5
:100A200001D110F8013B2A1106D110F8012B03E087
:100A300010F8016B01F8016B5B1EF9D12B0705D48F
:100A40000023521E0DD401F8013BFAE710F8013BD8
:100A5000CB1A921C03E013F8015B01F8015B521EF4
:100A6000F9D5A142D8D3002070BD000080B584B074
:100A7000039002910020ADF806000398002804D0EE
:100A8000FFE70298022801D8FFE71AE003980299CD
:100A9000023940F20C02C2F20002128800F036F96C
:100AA000ADF80600BDF806000399029A114401F85A
:100AB000020C9DF807000399029A114401F8010CF9
:100AC000FFE704B080BD000080B584B003900291C0
:100AD00000208DF807000398002804D0FFE7029853
:100AE000022801D8FFE70FE0039802990139FF229D
:100AF00000F042F98DF807009DF807000399029A6B
:100B0000114401F8010CFFE704B080BDFFE7FEE7E8
:100B100080B582B00020C4F2020005F0A5FC0028D8
:100B200010D0FFE742F29C60C2F2000001900BF08F
:100B300045FA01980FF0C2FF0020C4F2020005F050
:100B4000A7FAFFE702B080BD7047000080B542F20F
:100B5000EC30C2F2000000F05FFC80BD80B542F2D4
:100B60005040C2F2000000F057FC80BD80B542F258
:100B7000B440C2F2000000F04FFC80BD83B0029090
:100B80004AF20040C4F2000000900298006846F665
:100B90000001C4F20001884205D1FFE7009800F58A
:100BA00054700090FFE70298006846F60041C4F2D6
:100BB0000001884205D1FFE7009800F5D46000905D
:100BC000FFE700980299086402980068D0F8800056
:100BD00020F4F81002990A68496B40EA0140C2F813
:100BE0008000009870300299486402980068D0F83C
:100BF000800020F0706002990A68896B40EA016009
:100C0000C2F880000098B03002998864009800F51E
:100C1000C4700299C864009800F5187002990865BC
:100C2000009800F51E700299486500980190FFE752
:100C30000198009901F55471884208D2FFE70198A4
:100C400000210160FFE7019804300190F0E703B054
:100C50007047000088B007900691059204930698AB
:100C60004068002809D1FFE706980168826800699A
:100C7000104340EA8140039009E0069801688268C9
:100C800000691043084340F080400390FFE7069856
:100C9000016AC2684369D0F818C0C06940EA0160BF
:100CA00040EA0C001843104302900798406D0499E5
:100CB00001EBC10100EBC1000190039801990860AC
:100CC000019804300190029801990860019804305D
:100CD000019000200090FFE700980699C98944F22E
:100CE0007042C0F60102515C88420DD2FFE70598C0
:100CF0000099405801990860019804300190FFE77D
:100D0000009804300090E7E708B0704784B01346BD
:100D100002900191ADF802200298002805D1FFE76A
:100D20004FF6FF70ADF80E0022E0FFE70198411E7C
:100D30000191002817D0FFE70298411C029100782A
:100D40008DF80100BDF802009DF801104140C9B2C4
:100D500044F23462C0F6010232F8111081EA102028
:100D6000ADF80200E2E7BDF80200ADF80E00FFE7C3
:100D7000BDF80E0004B0704783B013460290019195
:100D80008DF80320FFE70198411E0191002813D040
:100D9000FFE79DF8030002994A1C02920978484037
:100DA0008DF802009DF8020044F27031C0F6010196
:100DB000085C8DF80300E6E79DF8030003B0704778
:100DC00086B0049003910292049890F85C008DF82C
:100DD0000700BDF80C0010F4C07F01D0FFE7FFE76B
:100DE0009DF80700012806D0FFE79DF807000228BC
:100DF00040F0E380FFE704980068806D00909DF864
:100E00000C004007002806D0FFE79DF80000C0074F
:100E1000002848D0FFE79DF80C0010F0380F06D0EE
:100E2000FFE79DF80000800700283CD5FFE7BDF8EC
:100E30000C0010F4E07F06D0FFE79DF800004007AB
:100E4000002830D5FFE79DF80D0010F01E0F06D0EA
:100E5000FFE79DF800000007002824D5FFE79DF874
:100E60000D0010F0E00F06D0FFE79DF80000C0066F
:100E7000002818D5FFE79DF80E008007002806D04F
:100E8000FFE79DF80000800600280CD5FFE79DF8DD
:100E90000E0010F0FC0F0DD0FFE79DF8000040069B
:100EA000002807D4FFE704980068C16D41F00101F4
:100EB000C165FFE79DF80C004007002806D0FFE75A
:100EC0009DF80000C007002848D1FFE79DF80C00FE
:100ED00010F0380F06D0FFE79DF8000080070028CB
:100EE0003CD4FFE7BDF80C0010F4E07F06D0FFE72C
:100EF0009DF800004007002830D4FFE79DF80D0062
:100F000010F01E0F06D0FFE79DF800000007002834
:100F100024D4FFE79DF80D0010F0E00F06D0FFE7A6
:100F20009DF80000C006002818D4FFE79DF80E00C9
:100F30008007002806D0FFE79DF800008006002803
:100F40000CD4FFE79DF80E0010F0FC0F0DD0FFE76A
:100F50009DF800004006002807D5FFE704980068C8
:100F6000C16D41F00201C165FFE79DF80C0000066C
:100F7000002809D5FFE7029804990968D1F8DC2018
:100F80001043C1F8DC00FFE79DF80D00C007002802
:100F900009D0FFE7029804990968D1F8E0201043CE
:100FA000C1F8E000FFE70398049909684A6D10430F
:100FB000486500208DF8170008E00498016E41F0A4
:100FC0000201016601208DF81700FFE79DF8170068
:100FD00006B0704780B586B00490039102920398E2
:100FE0004068002801D1FFE700E0FFE7049890F88F
:100FF0005C00022830D1FFE704980068D0F8C400F4
:101000008002002809D5FFE70498016E41F40071C1
:10101000016601208DF8170027E004980068D0F8D9
:10102000C400C0F30140019004980399029A019B07
:10103000FFF710FE0198012101FA00F0049A1268EE
:10104000C2F8CC00019801FA00F004998865FFE726
:1010500000208DF8170008E00498016E41F00801A7
:10106000016601208DF81700FFE79DF8170006B014
:1010700080BD000087B005900491059890F85C0051
:101080008DF803009DF80300012805D0FFE79DF8C7
:10109000030002283DD1FFE704980068002817D11B
:1010A000FFE704988168C26803694069890741EADB
:1010B000C26141EA0341084303900598006C04991A
:1010C000496800EB810001900398019908601CE0D9
:1010D0000498C168006940EA4170039004988168EF
:1010E000406940EA817002900598406C0499496813
:1010F00000EBC10001900398019908600198043049
:101100000190029801990860FFE700208DF81B000C
:1011100008E00598016E41F00201016601208DF89A
:101120001B00FFE79DF81B0007B0704785B0DDF896
:1011300014C00390029101920093039890F85C0010
:10114000012819D1FFE703980068D0F8800020F04B
:101150003F0002990901019A41EA8201009A41EA9D
:101160004201059A1143084303990968C1F88000B8
:1011700000208DF8130008E00398016E41F004018F
:10118000016601208DF81300FFE79DF8130005B0FC
:101190007047000084B0029001910092029890F88C
:1011A0005C00012824D1FFE7019840280ED1FFE719
:1011B00002980068D0F8800020F40070009940EA9E
:1011C000412002990968C1F880000DE0029800688A
:1011D000D0F8800020F48070009940EA0120029944
:1011E0000968C1F88000FFE700208DF80F0008E0D3
:1011F0000298016E41F00401016601208DF80F0094
:10120000FFE79DF80F0004B07047000081B0009028
:1012100001B0704780B582B00190009142F2EC308D
:10122000C2F2000000F00EF841F69871C2F200011F
:10123000086001980068816921F00101816102B0B4
:1012400080BD000081B000900098006E01B0704732
:101250008AB00890079106920593089890F85C0070
:101260008DF803009DF80300022840F0C380FFE7DB
:101270000798402822D1FFE708980068D0F890002E
:101280000007002809D1FFE70898016E41F480713A
:10129000016601208DF82700B5E008980068D0F8B5
:1012A0009000C0F3012001900898806C019901EB37
:1012B000C10100EBC1000490FFE721E0089800683D
:1012C000D0F898000007002809D1FFE70898016EC0
:1012D00041F48071016601208DF8270093E00898A1
:1012E0000068D0F89800C0F3012001900898C06C05
:1012F000019901EBC10100EBC1000490FFE7FFE79A
:101300000498006800F0804006994860069840689C
:10131000002807D1FFE704980068C0F38A400699C7
:10132000086006E00498006820F0604006990860B4
:10133000FFE70498006800F0005006998860049860
:10134000006800F000400699086104980430049099
:10135000049800880699C8610498006800F4702019
:101360000699C8600498006800F4801006994861E6
:101370000498006800F400100699886104980068D9
:10138000C0F306600699086204980068C00F0699C9
:10139000486204980430049004980390002002905E
:1013A000FFE702980699C98944F27042C0F601022B
:1013B000515C88420AD2FFE703980299405C059A83
:1013C0005054FFE7029801300290EAE7079840285E
:1013D00006D1FFE7019808990968C1F8940005E073
:1013E000019808990968C1F89C00FFE700208DF872
:1013F000270008E00898016E41F00801016601200D
:101400008DF82700FFE79DF827000AB0704700001D
:1014100081B0009001B0704780B588B00790079800
:101420000068006D00F4E050069007980068406D79
:1014300006990840069007980068006D00F00700C4
:10144000059007980068406D059908400590079839
:101450000068006D00F03800049007980068406D47
:1014600004990840049007980068006D00F471002A
:10147000039007980068406D03990840039007980F
:101480000068006D00F46020029007980068406DCD
:1014900002990840029007980068006D40060028F5
:1014A00010D5FFE707980068406D4006002808D572
:1014B000FFE707980068402101650798FFF7A8FF3C
:1014C000FFE7FFE707980068006DC00500281ED5FC
:1014D000FFE707980068406DC005002816D5FFE7B4
:1014E00007980068D0F8D800009007980068D0F8F6
:1014F000E000009908400090079800684FF4807160
:1015000001650798009900F015FDFFE7FFE70698D1
:10151000002809D0FFE70698079909680865079829
:10152000069900F03DFDFFE70598002809D0FFE788
:1015300005980799096808650798059900F020FB48
:10154000FFE70498002809D0FFE704980799096885
:1015500008650798049900F0B9FCFFE70798006850
:10156000006D8005002811D5FFE707980068406DE1
:101570008005002809D5FFE7079800684FF400713F
:101580000165079800F012FDFFE7FFE70798006884
:10159000006D000600281DD5FFE707980068406D24
:1015A0000006002815D5FFE707980068D0F8D4009A
:1015B000019007980068D0F8DC000199084001907C
:1015C00007980068802101650798019900F0B8FC30
:1015D000FFE7FFE707980068006D8004002811D539
:1015E000FFE707980068406D8004002809D5FFE7F1
:1015F000079800684FF400510165079800F096FCC9
:10160000FFE7FFE707980068006D0004002811D588
:10161000FFE707980068406D0004002809D5FFE740
:10162000079800684FF400410165079800F07AFCC4
:10163000FFE7FFE707980068006D4004002813D516
:10164000FFE707980068406D400400280BD5FFE7CE
:10165000079800684FF4804101650798016E41F0DA
:1016600080010166FFE7FFE70298002809D0FFE745
:10167000029807990968086507980299FFF7CAFD5B
:10168000FFE7039800280AD0FFE703980799096845
:101690000865039807990A6E10430866FFE70798E4
:1016A000006E002804D0FFE70798FFF7AFFDFFE7C3
:1016B00008B080BD80B584B002900298002804D1A3
:1016C000FFE701208DF80F0058E10298006846F20C
:1016D0000041C4F20001884201D1FFE7FFE7029810
:1016E0008068B0F5407F01D1FFE7FFE7029890F8EE
:1016F0005C00002808D1FFE70298002180F85D1007
:10170000029800F03FF9FFE702980068816921F034
:101710001001816100F00AFE0190FFE70298006865
:1017200080690007002815D5FFE700F0FFFD01994B
:10173000401A0B280DD3FFE70298016E41F001011A
:1017400001660298032180F85C1001208DF80F00DB
:1017500014E1E3E702980068816941F001018161C9
:1017600000F0E4FD0190FFE7029800688069C0077F
:10177000002815D1FFE700F0D9FD0199401A0B2888
:101780000DD3FFE70298016E41F001010166029856
:10179000032180F85C1001208DF80F00EEE0E3E7F4
:1017A00002980068816941F0020181610298006835
:1017B00046F20041C4F20001884208D1FFE70298D6
:1017C000406846F20051C4F200010860FFE7029849
:1017D000007C012807D1FFE702980068816921F0A9
:1017E0004001816106E002980068816941F0400192
:1017F0008161FFE70298407C012807D1FFE702984A
:101800000068816941F48041816106E002980068C6
:10181000816921F480418161FFE70298807C012881
:1018200007D1FFE702980068816921F48051816146
:1018300006E002980068816941F480518161FFE708
:1018400002980068806920F4407002990A688968EB
:101850000843906102980068816921F0A4018161C8
:1018600002980068016921F0100101610298C068C6
:10187000012807D1FFE702980068816941F004015F
:1018800081612CE00298C068002826D0FFE702980A
:10189000C068022819D0FFE702980068816941F00A
:1018A0008001816102980068016941F010010161C5
:1018B0000298C068032807D1FFE702980068816991
:1018C00041F020018161FFE706E00298006881692C
:1018D00041F020018161FFE700E0FFE7FFE70298A8
:1018E000016842698369D0F81CC0013B6FF0FF0EAC
:1018F0000EEB0C2C4CEA4363006A013818430023BA
:10190000CFF6FF7303EB02421043C8610298806870
:10191000B0F5407F1BD1FFE702980168426A836AF5
:10192000D0F82CC0013B6FF0FF0E0EEB0C2C43EAFD
:101930000C03006B6FF00F0C0CEB0010184300232E
:10194000CFF6FF7303EB02421043C860FFE7029833
:101950000168C06BD1F8C0201043C1F8C0000298E4
:10196000FFF70CF902980021816502980166029840
:10197000012280F85C208DF80F10FFE79DF80F0022
:1019800004B080BD80B592B01190002010900F90EF
:101990000E900D900C901198006846F20041C4F230
:1019A0000001884248D1FFE740F6DC70C2F2000037
:1019B0000168013101600068012810D1FFE7FFE7ED
:1019C00041F25800C4F20200016841F00071016068
:1019D000006800F000700B900B98FFE7FFE7FFE74F
:1019E00041F24C00C4F20200016841F002010160C2
:1019F000006800F002000A900A98FFE74FF4407078
:101A00000C9002200D9000200E900F900921109153
:101A100040F20041C4F600010CAA059008461146A8
:101A200000F0C8FA152001210490059A00F090FCFE
:101A3000049800F081FCA1E01198006846F60001CE
:101A4000C4F20001884247D1FFE740F6DC70C2F2E1
:101A500000000168013101600068012810D1FFE732
:101A6000FFE741F25800C4F20200016841F0007142
:101A70000160006800F0007009900998FFE7FFE737
:101A8000FFE741F24C00C4F20200016841F002019C
:101A90000160006800F0020008900898FFE76020ED
:101AA0000C9002200D9000200E900F9009211091B3
:101AB00040F20041C4F600010CAA0390084611460A
:101AC00000F078FA562001210290039A00F040FCC1
:101AD000029800F031FC50E01198006846F6004191
:101AE000C4F20001884247D1FFE740F6DC70C2F241
:101AF00000000168013101600068012810D1FFE792
:101B0000FFE741F25800C4F20200016841F00071A1
:101B10000160006800F0007007900798FFE7FFE79A
:101B2000FFE741F24C00C4F20200016841F00201FB
:101B30000160006800F0020006900698FFE7182098
:101B40000C9002200D9000200E900F900B21109110
:101B500040F20041C4F600010CAA0190084611466B
:101B600000F028FA582001210090019A00F0F0FBC3
:101B7000009800F0E1FBFFE7FFE7FFE712B080BD50
:101B800080B588B0079006919DF81800C00700281E
:101B900000F09981FFE7079842F2EC31C2F20001B0
:101BA000884253D1FFE7079841F20C31C2F200019D
:101BB0000A1D01F12C034FF0400C05916146FFF71F
:101BC00047FB05994A680A600A68B2F5007F3CD96C
:101BD000FFE741F20C30C2F200000068B0F5037F6D
:101BE00033D8FFE741F20C30C2F2000080680028D1
:101BF0002BD1FFE741F20C30C2F20000006842F640
:101C0000A021C2F2000101EB80004FF2FC71CFF67F
:101C1000FF714058002817D0FFE741F20C30C2F2A4
:101C2000000050F82C1B42F6A022C2F2000202EB88
:101C300081014FF2FC72CFF6FF728958049008467A
:101C4000049909F051FDFFE7FFE73BE1079842F2F5
:101C50005041C2F20001884254D1FFE7079841F297
:101C60000C31C2F2000101F1380201F160034FF0C2
:101C7000400C03916146FFF7EBFA03998A6B4A63C4
:101C80004A6BB2F5007F3CD9FFE741F20C30C2F25B
:101C90000000406BB0F5037F33D8FFE741F20C3012
:101CA000C2F20000C06B00282BD1FFE741F20C30DC
:101CB000C2F20000406B42F6A021C2F2000101EB2B
:101CC00080004FF62C01CFF6FF714058002817D046
:101CD000FFE741F20C30C2F20000416B42F6A02255
:101CE000C2F2000202EB81014FF62C02CFF6FF7226
:101CF0008958603002900846029909F0F5FCFFE728
:101D0000FFE7DEE0079842F2B441C2F200018842E8
:101D100040F0D680FFE7079841F20C31C2F2000193
:101D200001F16C0201F194034FF0400C0191614606
:101D3000FFF78EFA0199CA6E8A668A6EB2F5007F45
:101D40003CD9FFE741F20C30C2F20000806EB0F5E2
:101D5000037F33D8FFE741F20C30C2F20000006F7E
:101D600000282BD1FFE741F20C30C2F20000806E58
:101D700042F6A021C2F2000101EB80004FF65C01A7
:101D8000CFF6FF714058002817D0FFE741F20C3022
:101D9000C2F20000816E42F6A022C2F2000202EB03
:101DA00081014FF65C02CFF6FF72895894300090A3
:101DB0000846009909F098FCFFE7FFE741F20C3074
:101DC000C2F20000806E40F6D061C2F20001C98804
:101DD00088420DD1FFE741F20C30C2F2000000F161
:101DE000940140F6D060C2F200000BF065FDFFE701
:101DF00041F20C30C2F20000806E40F21071C2F26B
:101E00000001C98888420DD1FFE741F20C30C2F2CF
:101E1000000000F1940140F21070C2F200000BF0DB
:101E20004BFDFFE741F20C30C2F20000806E40F63D
:101E30001801C2F20001C98888420DD1FFE741F2C2
:101E40000C30C2F2000000F1940140F61800C2F21A
:101E500000000BF031FDFFE741F20C30C2F2000050
:101E6000C06EB0F5806F0AD9FFE741F20C30C2F2C4
:101E70000000C06E40F20541884213D3FFE741F2F3
:101E80000C30C2F20000C06EB0F5A06F17D9FFE7AA
:101E900041F20C30C2F20000C06E40F201518842A3
:101EA0000DD8FFE741F20C30C2F2000000F16801EA
:101EB00042F22850C2F200000EF0ECFAFFE7FFE712
:101EC000FFE7FFE7FFE708B080BD000082B00190A8
:101ED000009102B07047000082B00090009890F826
:101EE0005C00012810D1FFE70098022180F85C1007
:101EF00000980068816921F001018161009800214A
:101F000001668DF8071008E00098016E41F00401A9
:101F1000016601208DF80700FFE79DF8070002B079
:101F20007047000081B0009001B0704781B0009010
:101F300001B0704782B00190009102B0704700007C
:101F400080B582B001900091019842F2EC31C2F26A
:101F50000001884207D1FFE742F69840C2F2000034
:101F600007F0A2F919E0019842F25041C2F20001D3
:101F7000884209D1FFE742F69840C2F2000000F51E
:101F80001C7007F091F908E042F69840C2F2000098
:101F900000F59C6007F088F9FFE702B080BD000003
:101FA00082B00190009102B07047000081B00090B3
:101FB00001B070478BB00A90099100200890FFE7AC
:101FC000099800680899C840002800F0AC81FFE734
:101FD000099800680899012202FA01F10840079067
:101FE0000798002800F09B81FFE7099840680128C6
:101FF0000FD0FFE70998406802280AD0FFE7099848
:102000004068112805D0FFE70998406812282FD1B1
:10201000FFE70A988068069008984000032101FABB
:1020200000F0069921EA000006900998C068089916
:102030004900884006990843069006980A998860E6
:102040000A98406806900898012101FA00F0069964
:1020500021EA0000069009984068C0F30010089932
:10206000884006990843069006980A994860FFE759
:102070000A98C068069008984000032101FA00F011
:10208000069921EA0000069009988068089949009D
:10209000884006990843069006980A99C8600998EE
:1020A0004068022805D0FFE709984068122826D129
:1020B000FFE70A9808996FF0030202EA5101084409
:1020C000006A0690089800F0070080000F2101FACE
:1020D00000F0069921EA0000069009980069089925
:1020E00001F0070189008840069908430690069888
:1020F0000A99089B02EA530211440862FFE70A9812
:102100000068069008984000032101FA00F0069943
:1021100021EA000006900998406800F00300089941
:102120004900884006990843069006980A99086075
:102130000998C079C006002840F1F080FFE7FFE76A
:1021400041F26000C4F20200016841F00101016047
:10215000006800F0010005900598FFE7089820F05E
:1021600003000821C4F2010140580690089800F0CD
:10217000030080000F2101FA00F0069921EA000017
:1021800006900A98B0F1904F03D1FFE70020049029
:1021900042E00A9840F20041C4F60001884203D1AF
:1021A000FFE70120039034E00A9840F60001C4F6EE
:1021B0000001884203D1FFE70220029026E00A983E
:1021C00040F60041C4F60001884203D1FFE7032036
:1021D000019018E00A9841F20001C4F6000188421B
:1021E00003D1FFE7042000900AE00A9841F2004181
:1021F000C4F600010622884208BF05220092FFE7CC
:1022000000980190FFE701980290FFE70298039081
:10221000FFE703980490FFE70498089901F0030191
:10222000890088400699084306900698089921F08D
:1022300003010822C4F20102885040F20040C4F2B7
:102240000100006806900798069921EA00000690B0
:1022500009988079C007002805D0FFE707980699FC
:1022600008430690FFE7069840F20041C4F20101DE
:10227000086040F20440C4F201000068069007982C
:10228000069921EA000006900998807980070028C5
:1022900005D5FFE70798069908430690FFE70698DB
:1022A00040F20441C4F20101086040F20840C4F267
:1022B0000100006806900798069921EA0000069040
:1022C00009988079C006002805D5FFE70798069988
:1022D00008430690FFE7069840F20841C4F2010166
:1022E000086040F20C40C4F20100006806900798B4
:1022F000069921EA00000690099880798006002856
:1023000005D5FFE70798069908430690FFE706986A
:1023100040F20C41C4F201010860FFE7FFE70898B2
:10232000013008904CE60BB07047000043F2385083
:10233000C2F200000068704780B582B001468DF897
:1023400007009DF9070000910FF04AFB02B080BD25
:1023500080B588B003468DF81F000691059203935F
:102360000FF058FB04909DF91F000499069A059BF5
:102370000290084611461A4600F014FF0299019097
:10238000084601990FF04EFB08B080BDFFE7FEE75D
:1023900084B00390029101920398009000980299F2
:1023A00044F26832C0F60102515C405847F6F071C1
:1023B0008843019908430099029BD25C885004B07D
:1023C0007047000010B584B0039002910192039809
:1023D0000299019A9368D2F80CC0D2F810E05469BF
:1023E00043EA0C0343EA0E032343D2F818C043EA3E
:1023F0000C03D2F81CC043EA0C03926A1A43FFF79D
:10240000C7FF03980299019A526800F031F80398C7
:102410000299019A126800F03DF803980299019A16
:10242000126A00F009F803980299019A526A00F0C2
:1024300043F8002004B010BD84B0039002910192D3
:10244000039800900098029944F26832C0F60102A5
:10245000515C084440684FF6FF7188430199084376
:102460000099029BD25C1144486004B070470000A0
:1024700084B0039002910192039800900198009912
:10248000029A44F26833C0F601039A5C1144C860B2
:1024900004B0704784B003900291019203980090B9
:1024A00001980099029A44F26833C0F601039A5CDD
:1024B0001144886004B0704784B003900291019287
:1024C00003980021C4F2020148406FF0070101EABD
:1024D000D010009002988000009900EB810040F637
:1024E0000001C4F20201405820F0FF00019A10439D
:1024F000029A9200009B02EB8302505004B0704796
:1025000080B588B0059004910498006890FAA0F016
:1025100006900698002804D1FFE720208DF81F00C0
:1025200005E00698B0FA80F08DF81F00FFE79DF8EF
:102530001F000390FFE7049800680399C840002833
:102540004FD0FFE7049800680399012202FA01F1D5
:1025500008400290029800283FD0FFE704984068A6
:10256000012805D0FFE704984068022810D1FFE752
:1025700005980299049A926800F058F90598049910
:102580000A68C96801911146019A00F0FBF8FFE75B
:1025900005980299049A126900F004F904984068B9
:1025A000022813D1FFE70298FF2807D8FFE7059814
:1025B0000299049A526900F017F806E0059802990A
:1025C000049A526900F054F8FFE7FFE70598029972
:1025D000049A526800F092F8FFE7039801300390E4
:1025E000A9E7002008B080BD8AB00590049103924D
:1025F0000598006A049991FAA1F1069106990029BB
:10260000029004D1FFE720208DF81F0005E0069816
:10261000B0FA80F08DF81F00FFE79DF81F008000E2
:102620000F2101FA00F0029921EA0000039A049BAD
:1026300093FAA3F30893089B002B0190009204D116
:10264000FFE720208DF8270005E00898B0FA80F019
:102650008DF82700FFE79DF827008000009901FA18
:1026600000F0019A1043059B18620AB07047000001
:102670008AB00590049103920598406A0499090A6A
:1026800091FAA1F1069106990029029004D1FFE781
:1026900020208DF81F0005E00698B0FA80F08DF834
:1026A0001F00FFE79DF81F0080000F2101FA00F0D6
:1026B000029921EA0000039A049B1B0A93FAA3F3F0
:1026C0000893089B002B0190009204D1FFE7202083
:1026D0008DF8270005E00898B0FA80F08DF8270003
:1026E000FFE79DF827008000009901FA00F0019AA9
:1026F0001043059B58620AB0704700008AB00590ED
:102700000491039205980068049991FAA1F1069149
:1027100006990029029004D1FFE720208DF81F00C0
:1027200005E00698B0FA80F08DF81F00FFE79DF8ED
:102730001F004000032101FA00F0029921EA000085
:10274000039A049B93FAA3F30893089B002B019030
:10275000009204D1FFE720208DF8270005E00898BB
:10276000B0FA80F08DF82700FFE79DF827004000C1
:10277000009901FA00F0019A1043059B18600AB015
:102780007047000083B00290019100920298406867
:1027900001998843009A514308430299486003B065
:1027A000704700008AB00590049103920598C068B4
:1027B000049991FAA1F1069106990029029004D199
:1027C000FFE720208DF81F0005E00698B0FA80F0A2
:1027D0008DF81F00FFE79DF81F004000032101FA5C
:1027E00000F0029921EA0000039A049B93FAA3F3F4
:1027F0000893089B002B0190009204D1FFE7202052
:102800008DF8270005E00898B0FA80F08DF82700D1
:10281000FFE79DF827004000009901FA00F0019AB7
:102820001043059BD8600AB0704700008AB005903D
:102830000491039205988068049991FAA1F1069198
:1028400006990029029004D1FFE720208DF81F008F
:1028500005E00698B0FA80F08DF81F00FFE79DF8BC
:102860001F004000032101FA00F0029921EA000054
:10287000039A049B93FAA3F30893089B002B0190FF
:10288000009204D1FFE720208DF8270005E008988A
:10289000B0FA80F08DF82700FFE79DF82700400090
:1028A000009901FA00F0019A1043059B98600AB064
:1028B0007047000041F20800C4F20200006800F016
:1028C000F000704741F20800C4F20200006800F412
:1028D000E060704741F20800C4F20200006800F4B2
:1028E0006050704741F20800C4F20200006800F036
:1028F0000C00704780B584B00390002002900398CC
:10290000C02840D1FFE7039800F088F80146B0F5F1
:10291000400F01912DD0FFE74020C0F2C000019987
:1029200081420CD0FFE78020C0F2C00001998142B3
:1029300009D0FFE70198B0F1C01F10D01AE000F0F5
:10294000D9FF02901EE000F045F9002806D0FFE70D
:1029500042F20040C0F2F4000290FFE712E000F003
:1029600041F9002804D0FFE74FF400400290FFE750
:1029700008E0FFE700F0BEFF00F07EFF00F092FFEE
:102980000290FFE7FFE70398B0F5407F42D1FFE7F1
:10299000039800F043F80146B0F1407F00912FD03A
:1029A000FFE740F20010C0F20030009981420DD0E4
:1029B000FFE740F20020C0F200300099814209D0C8
:1029C000FFE70098B0F1032F10D01AE000F092FF5B
:1029D00002901EE000F0FEF8002806D0FFE742F269
:1029E0000040C0F2F4000290FFE712E000F0FAF8B5
:1029F000002804D0FFE74FF400400290FFE708E012
:102A0000FFE700F077FF00F037FF00F04BFF029088
:102A1000FFE7FFE7029804B080BD000081B000909E
:102A200041F28800C4F2020000680099084040EAC0
:102A3000014001B07047000080B586B005900020CD
:102A400004900598032832D1FFE7059800F0B4F808
:102A5000A0F540300146032803911FD80399DFE811
:102A600001F01C02061200F045FF04901EE000F089
:102A7000B1F8002806D0FFE742F20040C0F2F400AF
:102A80000490FFE712E000F0ADF8002804D0FFE763
:102A90004FF400400490FFE708E0FFE700F02AFF52
:102AA00000F0EAFE00F012FF0490FFE780E00598D6
:102AB0000C2837D1FFE7059800F07EF8A0F54020FC
:102AC00001460C28029124D80299DFE801F0212266
:102AD0002222072222220B222222170000F00AFFC4
:102AE00004901EE000F076F8002806D0FFE742F2DE
:102AF0000040C0F2F4000490FFE712E000F072F82A
:102B0000002804D0FFE74FF400400490FFE708E0FE
:102B1000FFE700F0EFFE00F0AFFE00F0C3FE049010
:102B2000FFE744E00598302840D1FFE7059800F022
:102B300043F80146B0F5401F01912DD0FFE710206A
:102B4000C0F23000019981420CD0FFE72020C0F292
:102B500030000199814209D0FFE70198B0F1301FA0
:102B600010D01AE000F0C6FE04901EE000F032F82B
:102B7000002806D0FFE742F20040C0F2F4000490C3
:102B8000FFE712E000F02EF8002804D0FFE74FF432
:102B900000400490FFE708E0FFE700F0ABFE00F024
:102BA0006BFE00F07FFE0490FFE7FFE7FFE7FFE723
:102BB000049806B080BD000081B0009041F288000A
:102BC000C4F2020000680099084040EA014001B0E8
:102BD0007047000041F20000C4F202000068C0F338
:102BE0008020704741F29000C4F202000068C0F3F8
:102BF0004000704741F20C00C4F20200006800F08F
:102C0000F000704741F20C00C4F20200006800F0CE
:102C10000300704741F20C00C4F202000068C0F3E8
:102C20000620704741F20C00C4F20200006800F078
:102C3000C060704781B00090009840F21801C2F265
:102C40000001086001B0704781B0009000984169B0
:102C500041F00101416101B07047000080B584B0CE
:102C600003900291039800680190039842F6004196
:102C7000C4F2010188422DD0FFE70398B0F1804FE4
:102C800028D0FFE7039840F20041C4F200018842D7
:102C900020D0FFE7039840F60001C4F2000188420B
:102CA00018D0FFE7039840F60041C4F200018842C3
:102CB00010D0FFE7039843F20041C4F201018842BB
:102CC00008D0FFE7039845F20001C4F201018842F1
:102CD00008D1FFE7019820F0700002994968084385
:102CE0000190FFE7039842F60041C4F201018842D7
:102CF00045D0FFE70398B0F1804F40D0FFE703983D
:102D000040F20041C4F20001884238D0FFE7039846
:102D100040F60001C4F20001884230D0FFE703987A
:102D200040F60041C4F20001884228D0FFE7039832
:102D300043F20041C4F20101884220D0FFE703982A
:102D400044F20001C4F20101884218D0FFE7039861
:102D500044F20041C4F20101884210D0FFE7039819
:102D600044F60001C4F20101884208D0FFE703984D
:102D700045F20001C4F20101884208D1FFE7019841
:102D800020F440700299C96808430190FFE7019858
:102D90000399086003980299896800F0C7F80398BE
:102DA0000299098800F0CAF8039842F60041C4F27B
:102DB0000101884228D0FFE7039843F20041C4F2A2
:102DC0000101884220D0FFE7039844F20001C4F2D9
:102DD0000101884218D0FFE7039844F20041C4F291
:102DE0000101884210D0FFE7039844F60001C4F2C5
:102DF0000101884208D0FFE7039845F20001C4F2C0
:102E00000101884206D1FFE703980299096900F0A1
:102E10009DF8FFE70398FFF717FF002004B080BD7F
:102E200080B586B005900491039201208DF80B00C7
:102E300004980128019018D0FFE7019810281BD0B2
:102E4000FFE70198B0F5807F1DD0FFE70198B0F54E
:102E5000805F1FD0FFE70198B0F5803F21D0FFE7EA
:102E60000198B0F5801F23D029E00598039900F060
:102E7000D1F98DF80B0023E00598039900F05AFA78
:102E80008DF80B001CE00598039900F0E7FA8DF827
:102E90000B0015E00598039900F072FB8DF80B000C
:102EA0000EE00598039900F0FFFB8DF80B0007E09A
:102EB0000598039900F06AFC8DF80B0000E0FFE72D
:102EC0009DF80B0006B080BD82B001900091009883
:102ED0000199486302B0704782B001900091009858
:102EE0000199886302B0704782B001900091009808
:102EF0000199C86302B0704782B0019000910098B8
:102F00000199086402B0704782B001900091019865
:102F1000806C0099019A916402B0704782B0019070
:102F2000009100980199C86402B0704782B0019086
:102F3000009100980199C86202B0704782B0019078
:102F4000009100980199886202B0704782B00190A8
:102F5000009100980199086302B0704780B586B06F
:102F60000590049101208DF80F0000200290059833
:102F700000F090F8002840F08880FFE7059800688E
:102F800046F6F311CEF6FF71084004998A680B6982
:102F9000D1F814C0C9691A4342EA0C02114308432C
:102FA0000599086005980499C96800F0E9F8059842
:102FB0000499896900F0C8F8059843F60001C4F245
:102FC0000101884205D1FFE70320FFF735FD02909C
:102FD00039E0059844F20041C4F20001884205D16D
:102FE000FFE70C20FFF728FD02902BE0059844F640
:102FF0000001C4F20001884205D1FFE73020FFF74D
:103000001BFD02901DE0059844F60041C4F200014A
:10301000884205D1FFE7C020FFF76CFC02900FE06B
:10302000059845F20001C4F20001884206D1FFE78D
:103030004FF44070FFF75EFC029000E0FFE7FFE70F
:10304000FFE7FFE7FFE70298002818D0FFE70498A2
:103050004068002813D0FFE700208DF80F00059886
:103060000299049A1368D2F804C0D269EE46CEF8E9
:1030700000C001921A46019B00F014F8FFE7059882
:103080000499096800F06EF8FFE79DF80F0006B09C
:1030900080BD000081B000900098006800F0010041
:1030A00001B0704786B0DDF818C005900491039216
:1030B000029303980C2801D3FFE742E0069800280A
:1030C00001D1FFE73CE00298B0F5004F23D1FFE7C4
:1030D00004989DF80C1044F28042C0F6010252F8A8
:1030E0002110B0FBF1F04000069900EB5100B0FB5D
:1030F000F1F080B2019001984FF6F0710840009015
:10310000019800F00E00009941EA500000900098EC
:103110000599C86013E004989DF80C1044F28042B1
:10312000C0F6010252F82110B0FBF1F0069900EB55
:103130005100B0FBF1F080B20599C860FFE7FFE7EE
:10314000FFE706B07047000082B00190009101983F
:10315000806820F44070009908430199886002B0AB
:103160007047000082B0019000910198C06A20F081
:103170000F00BDF8001008430199C86202B0704703
:1031800082B0019000910198406820F4405000996D
:1031900008430199486002B070470000FFE7FEE76E
:1031A000FFE7FEE788B0079006910592079800F0C8
:1031B000070004900498C0F10700052803D3FFE737
:1031C0000420019004E00498C0F107000190FFE79B
:1031D0000198039004980430062803D8FFE70020E4
:1031E000009003E0049803380090FFE700980290F5
:1031F00006980399012202FA01F101390840029967
:103200008840059B02FA01F101391940084308B0D2
:103210007047000080B586B0059004910598016A5A
:1032200021F0010101620598006A0290059840684A
:103230000190059880690390039820F003000390A3
:1032400003984FF68F71CFF6FE7108400499096814
:1032500008430390029820F002000499096908438A
:103260000290029820F001000499496808430290F6
:10327000059842F60041C4F20101884228D0FFE7D8
:10328000059843F20041C4F20101884220D0FFE7D3
:10329000059844F20001C4F20101884218D0FFE70A
:1032A000059844F20041C4F20101884210D0FFE7C2
:1032B000059844F60001C4F20101884208D0FFE7F6
:1032C000059845F20001C4F20101884220D1FFE7D0
:1032D000029820F008000499496940EA81000290B0
:1032E000029820F004000499896840EA8100029065
:1032F000019820F48070049989690843019001982D
:1033000020F400700499C96940EA41000190FFE788
:103310000198059948600398059988610598049972
:10332000C968FFF7D1FD029805990862002006B030
:1033300080BD000080B586B0059004910598016AB3
:1033400021F0100101620598006A0290059840681A
:103350000190059880690390039820F440700390D1
:10336000039848F6FF71CFF6FF6108400499096899
:1033700040EA01200390029820F020000499096996
:1033800040EA01100290029820F010000499496868
:1033900040EA01100290059842F60041C4F2010192
:1033A000884228D0FFE7059843F20041C4F20101AA
:1033B000884220D0FFE7059844F20001C4F20101E1
:1033C000884218D0FFE7059844F20041C4F2010199
:1033D000884210D0FFE7059844F60001C4F20101CD
:1033E000884208D0FFE7059845F20001C4F20101C8
:1033F000884221D1FFE7029820F0800004994969B2
:1034000040EA81100290029820F0400004998968F7
:1034100040EA81100290019820F480600499896943
:1034200040EA81000190019820F400600499C96984
:1034300040EAC1000190FFE70198059948600398B0
:103440000599886105980499C968FFF745FD0298B8
:1034500005990862002006B080BD000080B586B0E6
:10346000059004910598016A21F480710162059824
:10347000006A02900598406801900598C069039021
:10348000039820F00300039003984FF68F71CFF656
:10349000FE7108400499096808430390029820F4DB
:1034A00000700499096940EA01200290029820F412
:1034B00080700499496840EA01200290059842F61C
:1034C0000041C4F20101884228D0FFE7059843F289
:1034D0000041C4F20101884220D0FFE7059844F280
:1034E0000001C4F20101884218D0FFE7059844F2B8
:1034F0000041C4F20101884210D0FFE7059844F66C
:103500000001C4F20101884208D0FFE7059845F2A6
:103510000001C4F20101884221D1FFE7029820F4A2
:1035200000600499496940EA81200290029820F4E1
:1035300080600499896840EA81200290019820F413
:1035400080500499896940EA01100190019820F4A3
:1035500000500499C96940EA41100190FFE70198C1
:103560000599486003980599C86105980499C96848
:10357000FFF7BAFC029805990862002006B080BDEA
:1035800080B586B0059004910598016A21F48051B8
:1035900001620598006A02900598406801900598BC
:1035A000C0690390039820F440700390039848F694
:1035B000FF71CFF6FF6108400499096840EA0120D5
:1035C0000390029820F400500499096940EA013000
:1035D0000290029820F480500499496840EA013032
:1035E0000290059842F60041C4F20101884228D0B9
:1035F000FFE7059843F20041C4F20101884220D060
:10360000FFE7059844F20001C4F20101884218D096
:10361000FFE7059844F20041C4F20101884210D04E
:10362000FFE7059844F60001C4F20101884208D082
:10363000FFE7059845F20001C4F20101884221D15B
:10364000FFE7029820F400400499496940EA81307C
:103650000290029820F480400499896840EA813001
:103660000290019820F480400499896940EA811011
:103670000190019820F400400499C96940EAC11002
:103680000190FFE701980599486003980599C86182
:1036900005980499C968FFF72FFC029805990862FC
:1036A000002006B080BD000080B584B00390029178
:1036B0000398016A21F4803101620398006A009046
:1036C0000398006D019001984FF68F71CFF6FE714F
:1036D00008400299096808430190009820F40030DE
:1036E0000299096940EA01400090009820F4803076
:1036F0000299496840EA01400090039842F600416F
:10370000C4F20101884228D0FFE7039843F2004148
:10371000C4F20101884220D0FFE7039844F200017F
:10372000C4F20101884218D0FFE7039844F2004137
:10373000C4F20101884210D0FFE7039844F600016B
:10374000C4F20101884208D0FFE7039845F2000166
:10375000C4F2010188420BD1FFE70398406820F4CE
:1037600080300299896940EA012003994860FFE7A7
:1037700001980399086503980299C968FFF7C4FB8B
:10378000009803990862002004B080BD80B584B021
:10379000039002910398016A21F480110162039859
:1037A000006A00900398006D0190019848F6FF713F
:1037B000CFF6FF6108400299096840EA01200190B4
:1037C000009820F400100299096940EA0150009025
:1037D000009820F480100299496840EA0150009056
:1037E000039842F60041C4F20101884228D0FFE765
:1037F000039843F20041C4F20101884220D0FFE760
:10380000039844F20001C4F20101884218D0FFE796
:10381000039844F20041C4F20101884210D0FFE74E
:10382000039844F60001C4F20101884208D0FFE782
:10383000039845F20001C4F2010188420BD1FFE771
:103840000398406820F480200299896940EA812029
:1038500003994860FFE70198039908650398029966
:10386000C968FFF75BFB009803990862002004B069
:1038700080BD00007047000080B582B001900198C3
:103880000090FFF717F8C0B2000944F25031C0F6BB
:103890000101085C00F01F00009921FA00F002B05D
:1038A00080BD000080B582B0019001980090FFF7C4
:1038B00009F8000A44F26031C0F60101085C00F02A
:1038C0001F00009921FA00F002B080BD80B582B0DF
:1038D000019001980090FEF7FDFFC00A44F26031AC
:1038E000C0F60101085C00F01F00009921FA00F009
:1038F00002B080BD80B582B0FEF7F4FF0146042817
:10390000009108D0FFE7009808280AD0FFE7009848
:103910000C280CD00FE042F20040C0F2F4000190FD
:103920000FE041F20020C0F27A00019009E000F0BF
:103930000BF8019005E042F20040C0F2F400019063
:10394000FFE7019802B080BD80B586B0FFF75AF955
:10395000049004980228039004D0FFE703980328FA
:1039600006D00BE042F20040C0F2F40005900BE0FC
:1039700041F20020C0F27A00059005E042F20040DA
:10398000C0F2F4000590FFE705980290FFF742F9B6
:10399000029948430190FFF72DF9012101EB101026
:1039A0000199B1FBF0F00090FFF73CF9400E0221C5
:1039B00001EB40000099B1FBF0F006B080BD0000C3
:1039C0007047000080B543F22040C2F20000016859
:1039D0000131016040F27440C2F20000007800281A
:1039E0001FD0FFE742F66040C2F2000001880131BB
:1039F0000180418801314180818801318180C18805
:103A00000131C18001890131018141890131418147
:103A1000818901318181C1890131C18100F012F8B0
:103A2000FFE780BD4EF68850CEF20000016841F4F9
:103A3000700101604EF60850CEF200004FF00061B8
:103A40000160704780B594B0139000F019FB11919C
:103A5000109001F007FD00F013FB109A801A139AE2
:103A6000506113980088022810DBFFE713980021AB
:103A7000018000F005FB0F910E9001F02BFC00F08F
:103A8000FFFA0E9A801A139A9061FFE71398408804
:103A9000052810DBFFE713980021418000F0F0FAC1
:103AA0000D910C9001F014FC00F0EAFA0C9A801AC7
:103AB000139AD061FFE7139880880A2810DBFFE78C
:103AC00013980021818000F0DBFA0B910A9001F03D
:103AD000FDFB00F0D5FA0A9A801A139A1062FFE7EC
:103AE0001398C088142810DBFFE713980021C180C9
:103AF00000F0C6FA0991089001F07AF900F0C0FAD6
:103B0000089A801A139A5062FFE7139800893228A6
:103B100010DBFFE713980021018100F0B1FA079153
:103B2000069001F063F900F0ABFA069A801A139A36
:103B30009062FFE713984089642810DBFFE7139831
:103B40000021418100F09CFA0591049001F04CF9AC
:103B500000F096FA049A801A139AD062FFE713983D
:103B60008089B0F5FA7F10DBFFE71398002181818F
:103B700000F086FA0391029000F022FA00F080FA39
:103B8000029A801A139A1063FFE71398C089B0F560
:103B90007A7F10DBFFE713980021C18100F070FAF3
:103BA0000191009000F00AFA00F06AFA009A801A77
:103BB000139A5063FFE7139841698269C369D0F88B
:103BC00020C04FF4FA7E02FB0EF24FF47A7E01FB26
:103BD0000E21C82203FB021164220CFB0211426A6F
:103BE000322302FB0311826A02EB820201EB8201A3
:103BF000C26A02EB820201EB4201026B01EB42015D
:103C0000426B114400EE101AB8EE400A9FED031A01
:103C100080EE010A80ED040A14B080BD00247449CE
:103C200080B586B043F60000C4F2010002F066FEE3
:103C3000002850D0FFE743F60000C4F201000590D1
:103C400002F0ECFC059802F0C7FB0021C4F202016F
:103C5000002204900846114602F010FB43F23C504B
:103C6000C2F200000078A52827D1FFE743F23C50BC
:103C7000C2F20000407803281FD1FFE743F23C5016
:103C8000C2F20000432100F093F800280DD0FFE7B6
:103C900043F23C50C2F2000000F144014322039081
:103CA00008460399FCF718FBFFE743F23C50C2F2C9
:103CB0000000DE3008F082F9FFE70020C4F20200C5
:103CC000002144220290019102F068FA02980199C1
:103CD00002F012FAFFE706B080BD000080B58AB09E
:103CE00044F20040C4F2000002F000FE00285AD066
:103CF000FFE744F20040C4F20000099002F086FCA5
:103D0000099802F061FB0021C4F20201022208902E
:103D1000084607911146069202F000FA42F69421F5
:103D2000C2F2000108700798069902F0F7F9C0F195
:103D3000240041F21021C2F2000108800798069A7F
:103D40000591114602F076FA0598018812291CD1D6
:103D5000FFE742F64C40C2F2000042F62841C2F2B0
:103D6000000112220490FCF7B7FA42F6E231C2F2E7
:103D7000000103900846049A0291114604F04CF8A1
:103D800002982A3008F01AF9FFE70020C4F2020076
:103D9000022124220190009102F0E4F90198009997
:103DA00002F086F9FFE70AB080BD0000FFE7FEE7FA
:103DB00080B586B0049003910020ADF80A00049805
:103DC000002804D0FFE70398022803D8FFE700206B
:103DD000059029E004980399023940F20C02C2F2DE
:103DE00000021288FCF792FFADF80A009DF80A0065
:103DF0000499039A114411F8021C0022884201928E
:103E00000DD1FFE79DF80B000499039A114411F8B6
:103E1000011C401AB0FA80F040090190FFE70198B8
:103E200000F001000590FFE7059806B080BD000096
:103E300080B50DF05DFE80BD80B50DF05BFF0DF02F
:103E4000BBFF80BD80B50DF03BFE80BD80B50DF0A1
:103E5000AFFE80BD80B50DF035FF80BD80B50DF0A3
:103E600017FE0DF081FF0EF007F80EF051F80EF07E
:103E70005DF80EF069F80EF075F80EF083F80EF0AC
:103E800091F80EF09FF80DF09FFF0DF0ADFF0DF0D3
:103E9000B3FF0DF0B9FF0DF0BFFF0DF0C5FF0DF042
:103EA000CBFF0DF0D1FF0DF0D7FF0DF0DDFF0DF0D2
:103EB000FFFF0EF005F80EF00BF80EF011F80EF003
:103EC00017F880BD80B50DF025FF80BD80B50DF0E1
:103ED0004BFE80BD80B50DF025FF80BD80B50DF097
:103EE000F7FD80BD80B50DF04BFE80BD80B50DF0B7
:103EF00053FE80BD80B50DF067FE0DF055FF0DF04F
:103F0000CFFF80BD80B50DF0EBFD80BD80B50DF01D
:103F1000E1FE80BD80B50DF0F5FE80BD80B50DF0F1
:103F2000BFFD80BD80B50DF075FE80BD80B50DF084
:103F3000E7FD0DF021FF80BD80B50DF04DFE80BD89
:103F400080B50DF0E5FD0DF023FF0DF09DFF80BD68
:103F500080B50DF0FDFD80BD80B50DF0A9FD80BDE3
:103F600080B50DF0DDFD80BD80B50DF0E5FD80BDB7
:103F700080B50DF0B7FE80BD80B584B040F218006A
:103F8000C2F20000006844F6D351C1F26201A0FB06
:103F9000010189090390084601F0EEFD029002F04C
:103FA000B5FC0421002201F093FF4FF0FF31019096
:103FB0000846019901F0BEFE04B080BD70470000C4
:103FC0007047000080B582B04FF4FA7001F000FD38
:103FD00041F25020C2F2000006F0FCFF41F20C302A
:103FE000C2F2000042F2EC31C2F20001009006F091
:103FF000C5FA42F25041C2F20001009806F0BEFA42
:1040000042F2B441C2F20001009806F0B7FA07F09C
:1040100035F901F04FFD42F6E230C2F2000004F043
:1040200061F843F23C50C2F2000008F05DF8002055
:104030008DF80700FFE79DF8070041F20001C2F28A
:1040400000010968884213DAFFE741F20400C2F276
:10405000000000689DF8071050F821000168C96849
:104060008847FFE79DF8070001308DF80700E2E779
:1040700040F27440C2F200000121017002B080BD24
:1040800080B584B043F22040C2F2000000680021F5
:1040900003910290029803994FF47A7251434EF2C1
:1040A0001403CEF20003D3F800C04EF2180ECEF285
:1040B000000EDEF800E0ACEB0E0C0CFB02FC1B6803
:1040C000BCFBF3F3E0FB02310191009300980199EE
:1040D00004B080BD2DE9F04F81B02DED028BADF520
:1040E0000A7D0DF5CC7CDDF87CE29E9C9D9D9C9E1E
:1040F0009B9FDDF86882DDF86492DDF860A2DDF850
:104100005CB26290969861936092CDF8DC91CDF8A4
:10411000D8A1CDF8D4B1749061987390DDF88091F6
:10412000CDF8C891CDF8C4E170946F956E966D97F7
:10413000CDF8B0816B918CED040A6B9991ED000A7A
:10414000B5EE400AF1EE10FACDF87CC140F04B8498
:10415000FFE70020699068906790669072986B996D
:10416000486069986B9988605F9890ED010AB0EE9D
:10417000001A80EE010A6B9981ED030A90ED060AA0
:10418000B3EE042A20EE020A90ED0C3A23EE023A36
:1041900030EE430A90ED023AB2EE004A23EE043AC2
:1041A00090ED035AB2EE086A25EE065A33EE053A50
:1041B00090ED045A23EE053A30EE430A90ED013AB1
:1041C000B0EE087A23EE073AD0ED000A30EEC33A9B
:1041D0008DED5E0AB0EE450AF0EE410A8DED5D1AF6
:1041E0008DED5C2A8DED5B4A8DED5A6A8DED597A25
:1041F0008DED583A0FF0CCF89DED581A21EE000ADB
:104200009DED5E1A31EE000A10EE100AFCF779FA05
:1042100041EC180B6A98799003207890799957901F
:1042200008468DED548BFCF76CFA41EC100B789836
:104230008DED520BFCF728FA41EC110B9DED520B62
:104240000EF07EFA51EC100B51905091519A509B08
:10425000FCF784F841EC100B9DED541B51EC110B55
:1042600053EC102BFCF793F941EC100B51EC100BB5
:10427000FCF75AFA6B9908615F9890ED0C2AB3EE3F
:104280000E3A22EE032A90ED064A24EE034A32EE5D
:10429000442A90ED024AB2EE0C5A24EE054A90ED03
:1042A000036AB3EE007A26EE076A34EE064A90ED12
:1042B000046A24EE064A32EE042A90ED014ADDED4E
:1042C000592A24EE224AD0ED003A73EEA33A34EE96
:1042D000634AB0EE460ADDED5D0A8DED4F3A8DED95
:1042E0004E5A8DED4D7A8DED4C2A8DED4B4A0FF0E7
:1042F0004FF89DED4B2A22EE000A9DED4C2A32EE3E
:10430000000A10EE100AFCF7FCF941EC110B6A9858
:104310007B9004207A907B994A9008468DED481B4B
:10432000FCF7EFF941EC100B7A988DED460BFCF79A
:10433000ABF941EC110B9DED460B0EF001FA51EC7F
:10434000100B45904491459A449BFCF707F841ECCB
:10435000100B9DED481B51EC110B53EC102BFCF78F
:1043600016F941EC100B51EC100BFCF7DDF96B99D1
:1043700048615F9890ED062A9DED5A3A22EE032A95
:1043800090ED0C4A24EE034A32EE442A90ED024AA4
:10439000B1EE085A24EE054A90ED036A26EE056A4E
:1043A00034EE064A90ED046A24EE064A32EE442AC0
:1043B00090ED014A90ED007A37EE444AB0EE460A9D
:1043C000DDED5D0A8DED435A8DED422A8DED414ABA
:1043D0000EF0DEFF9DED412A22EE000A9DED422AFD
:1043E00032EE000A10EE100AFCF78BF941EC110BCB
:1043F0006A987D9005207C907D99409008468DEDCF
:104400003E1BFCF77EF941EC100B7C988DED3C0BCC
:10441000FCF73AF941EC110B9DED3C0B0EF090F9D5
:1044200051EC100B3B903A913B9A3A9BFBF796FF6D
:1044300041EC100B9DED3E1B51EC110B53EC102B7E
:10444000FCF7A5F841EC100B51EC100BFCF76CF9E4
:104450006B99886173986B99C86169986B990862C8
:104460005F9890ED012A9DED5D3A82EE032A6B99EB
:1044700081ED092A90ED072A9DED5C4A22EE042A7F
:1044800090ED0D5A25EE045A32EE452A90ED025A6F
:104490009DED5B6A25EE065A90ED037ADDED5A2A12
:1044A00027EE227A35EE075A90ED047A25EE075A68
:1044B00032EE452A90ED015ADDED593A25EE235AA8
:1044C000D0ED004A34EEC55AB0EE470AF0EE430A8A
:1044D0008DED392A8DED385A0EF05AFF9DED382AB0
:1044E00022EE000A9DED392A32EE000A10EE100A83
:1044F000FCF707F941EC110B6A987F9057987E9072
:104500007F988DED361BFCF7FCF841EC100B7E9884
:104510008DED340BFCF7B8F841EC110B9DED340B2D
:104520000EF00EF951EC100B33903291339A329B0E
:10453000FBF714FF41EC100B9DED361B51EC110BFA
:1045400053EC102BFCF723F841EC100B51EC100B43
:10455000FCF7EAF86B9988625F9890ED0D2A9DED63
:104560004F3A22EE032A90ED074A24EE034A32EE38
:10457000442A90ED024A9DED4E5A24EE054A90EDF4
:10458000036A9DED4D7A26EE076A34EE064A90EDF9
:10459000046A24EE064A32EE042A90ED014ADDED6B
:1045A000592A24EE224AD0ED003A73EEA33A34EEB3
:1045B000634AB0EE460ADDED5D0A8DED312A8DEDE0
:1045C000304A0EF0E5FE9DED302A22EE000A9DED08
:1045D000312A32EE000A10EE100AFCF792F841EC94
:1045E000110B6A9881904A98809081988DED2E1BCE
:1045F000FCF787F841EC100B80988DED2C0BFCF745
:1046000043F841EC110B9DED2C0B0EF099F851EC99
:10461000100B2B902A912B9A2A9BFBF79FFE41ECC3
:10462000100B9DED2E1B51EC110B53EC102BFBF7D7
:10463000AEFF41EC100B51EC100BFCF775F86B99C9
:10464000C8625F9890ED072A9DED5A3A22EE032A40
:1046500090ED0D4A24EE034A32EE442A90ED024AD0
:104660009DED435A24EE054A90ED036A26EE056A55
:1046700034EE064A90ED046A24EE064A32EE442AED
:1046800090ED014A90ED007A37EE444AB0EE460ACA
:10469000DDED5D0A8DED292A8DED284A0EF078FEBC
:1046A0009DED282A22EE000A9DED292A32EE000A0D
:1046B00010EE100AFCF725F841EC110B6A98839074
:1046C0004098829083988DED261BFCF71AF841ECF8
:1046D000100B82988DED240BFBF7D6FF41EC110BEC
:1046E0009DED240B0EF02CF851EC100B2390229131
:1046F000239A229BFBF732FE41EC100B9DED261B0B
:1047000051EC110B53EC102BFBF741FF41EC100B5C
:1047100051EC100BFCF708F86B99086374986B99CF
:10472000486369986B9988635F9890ED012A9DEDC5
:104730005D3A82EE032A6B9981ED0F2A90ED082AEB
:104740009DED5C4A22EE042A90ED0E5A25EE045AA5
:1047500032EE452A90ED025A9DED5B6A25EE065A2F
:1047600090ED037ADDED5A2A27EE227A35EE075ACC
:1047700090ED047A25EE075A32EE452A90ED015A63
:10478000DDED593A25EE235AD0ED004A34EEC55AF4
:10479000B0EE470AF0EE430A8DED212A8DED205A46
:1047A0000EF0F6FD9DED202A22EE000A9DED212A55
:1047B00032EE000A10EE100AFBF7A3FF41EC110BDA
:1047C0006A9885905798849085988DED1E1BFBF70D
:1047D00098FF41EC100B84988DED1C0BFBF754FFF8
:1047E00041EC110B9DED1C0B0DF0AAFF51EC100BD1
:1047F0001B901A911B9A1A9BFBF7B0FD41EC100B12
:104800009DED1E1B51EC110B53EC102BFBF7BFFE63
:1048100041EC100B51EC100BFBF786FF6B99086411
:104820005F9890ED0E2A9DED4F3A22EE032A90ED0F
:10483000084A24EE034A32EE442A90ED024A9DEDE6
:104840004E5A24EE054A90ED036A9DED4D7A26EE10
:10485000076A34EE064A90ED046A24EE064A32EE08
:10486000042A90ED014ADDED592A24EE224AD0EDCA
:10487000003A73EEA33A34EE634AB0EE460ADDED39
:104880005D0A8DED192A8DED184A0EF081FD9DED22
:10489000182A22EE000A9DED192A32EE000A10EEC7
:1048A000100AFBF72EFF41EC110B6A9887904A988B
:1048B000869087988DED161BFBF723FF41EC100BBC
:1048C00086988DED140BFBF7DFFE41EC110B9DED8F
:1048D000140B0DF035FF51EC100B13901291139A3D
:1048E000129BFBF73BFD41EC100B9DED161B51ECB1
:1048F000110B53EC102BFBF74AFE41EC100B51EC63
:10490000100BFBF711FF6B9948645F9890ED082A34
:104910009DED5A3A22EE032A90ED0E4A24EE034A08
:1049200032EE442A90ED024A9DED435A24EE054AA8
:1049300090ED036A26EE056A34EE064A90ED046AAD
:1049400024EE064A32EE442A90ED014A90ED007AB8
:1049500037EE444AB0EE460ADDED5D0A8DED112AD0
:104960008DED104A0EF014FD9DED102A22EE000A86
:104970009DED112A32EE000A10EE100AFBF7C1FE7F
:1049800041EC110B6A9889904098889089988DED38
:104990000E1BFBF7B6FE41EC100B88988DED0C0B4F
:1049A000FBF772FE41EC110B9DED0C0B0DF0C8FEF8
:1049B00051EC100B0B900A910B9A0A9BFBF7CEFC63
:1049C00041EC100B9DED0E1B51EC110B53EC102B19
:1049D000FBF7DDFD41EC100B51EC100BFBF7A4FED7
:1049E0006B998864FFE76B98503006F0FBFB6B987F
:1049F00090ED001A31EE000A80ED000A629802F094
:104A00004FF96B9890ED000A5F9890ED041AB4EEA0
:104A1000410AF1EE10FA00F3D081FFE700208DF893
:104A20009701FFE79DF89701052825DCFFE76B98C4
:104A30009DF8971100EB810292ED010A90ED001AAA
:104A400002EE101AF8EE420A8DED090AB0EE410AA4
:104A50000EF09EFC9DED091A21EE000A629890ED81
:104A6000001A31EE000A80ED000AFFE79DF8970179
:104A700001308DF89701D5E700208DF89601FFE70A
:104A80009DF89601052825DCFFE76B989DF89611A7
:104A900000EB810292ED070A90ED001A02EE101A67
:104AA000F8EE420A8DED080AB0EE410A0EF070FCF5
:104AB0009DED081A21EE000A629890ED011A31EE80
:104AC000000A80ED010AFFE79DF8960101308DF89C
:104AD0009601D5E700208DF89501FFE79DF8950137
:104AE000052825DCFFE76B989DF8951100EB810206
:104AF00092ED0D0A90ED001A02EE101AF8EE420A3D
:104B00008DED070AB0EE410A0EF042FC9DED071A4A
:104B100021EE000A629890ED021A31EE000A80ED53
:104B2000020AFFE79DF8950101308DF89501D5E760
:104B300001208DF89401FFE79DF8940105282CDCF5
:104B4000FFE79DF8940100EE100AB8EEC00A6B99D9
:104B500001EB800292ED011A20EE010A91ED001A9C
:104B6000013802EE100AF8EEC20A8DED060AB0EE28
:104B7000410A0EF00DFC9DED061A21EE000A629826
:104B800090ED031A31EE000A80ED030AFFE79DF86D
:104B9000940101308DF89401CEE701208DF8930146
:104BA000FFE79DF8930105282CDCFFE79DF89301B2
:104BB00000EE100AB8EEC00A6B9901EB800292ED8C
:104BC000071A20EE010A91ED001A013802EE100AD0
:104BD000F8EEC20A8DED050AB0EE410A0EF0D8FBE0
:104BE0009DED051A21EE000A629890ED041A31EE4F
:104BF000000A80ED040AFFE79DF8930101308DF86B
:104C00009301CEE701208DF89201FFE79DF8920114
:104C100005282CDCFFE79DF8920100EE100AB8EEA3
:104C2000C00A6B9901EB800292ED0D1A20EE010A89
:104C300091ED001A013802EE100AF8EEC20A8DED6D
:104C4000040AB0EE410A0EF0A3FB9DED041A21EE1A
:104C5000000A629890ED051A31EE000A80ED050A0F
:104C6000FFE79DF8920101308DF89201CEE7022016
:104C70008DF89101FFE79DF8910105282EDCFFE7F3
:104C80009DF89101411E414300EE101AB8EEC00A92
:104C90006B9901EB800292ED011A20EE010A91ED71
:104CA000001A023802EE100AF8EEC20A8DED030A6D
:104CB000B0EE410A0EF06CFB9DED031A21EE000AE6
:104CC000629890ED061A31EE000A80ED060AFFE7C1
:104CD0009DF8910101308DF89101CCE702208DF80B
:104CE0009001FFE79DF8900105282EDCFFE79DF875
:104CF0009001411E414300EE101AB8EEC00A6B99B4
:104D000001EB800292ED071A20EE010A91ED001AE4
:104D1000023802EE100AF8EEC20A8DED020AB0EE79
:104D2000410A0EF035FB9DED021A21EE000A629851
:104D300090ED071A31EE000A80ED070AFFE79DF8B3
:104D4000900101308DF89001CCE702208DF88F01A1
:104D5000FFE79DF88F0105282EDCFFE79DF88F0106
:104D6000411E414300EE101AB8EEC00A6B9901EBE8
:104D7000800292ED0D1A20EE010A91ED001A023820
:104D800002EE100AF8EEC20A8DED010AB0EE410AF9
:104D90000EF0FEFA9DED011A21EE000A629890EDE8
:104DA000081A31EE000A80ED080AFFE79DF88F012E
:104DB00001308DF88F01CCE70EE06C9862990860A5
:104DC0006D9848606E9888600020C86008614861EE
:104DD0008861C8610862FFE70DF50A7DBDEC028BB2
:104DE00001B0BDE8F08F0000704700007047000080
:104DF00080B582B000208DF80700FFE79DF807001E
:104E000041F20421C2F200010968884224DAFFE776
:104E100041F20020C2F2000000689DF8071050F82F
:104E200021000A3007F0DEF800280ED0FFE740F23C
:104E3000E060C2F200000121017040F2E160C2F2C4
:104E40000000017801310170FFE7FFE79DF80700DE
:104E500001308DF80700D1E700208DF80600FFE74C
:104E60009DF8060041F20C21C2F200010968884257
:104E700024DAFFE741F20820C2F2000000689DF842
:104E8000061050F82100403007F0ACF800280ED092
:104E9000FFE740F2E060C2F200000121017040F241
:104EA000E160C2F20000017801310170FFE7FFE725
:104EB0009DF8060001308DF80600D1E740F2E06071
:104EC000C2F20000007800280DD0FFE743F2206016
:104ED000C2F200000121017040F2E060C2F2000065
:104EE0000021017010E043F22060C2F200000021B6
:104EF000017040F2E060C2F20000017040F2E16037
:104F0000C2F200000170FFE700208DF80500FFE706
:104F10009DF8050041F20421C2F2000109688842AF
:104F200043DAFFE741F20020C2F2000000689DF87A
:104F3000051050F82100B0F92C0251282EDBFFE7B4
:104F400041F20020C2F2000000689DF8051050F800
:104F500021000078002821D0FFE741F20020C2F2B2
:104F6000000000689DF8051050F821000078052821
:104F700014D0FFE741F20020C2F2000000689DF863
:104F8000051050F821000078032807D0FFE740F211
:104F90000870C2F2000001210170FFE7FFE79DF8F1
:104FA000050001308DF80500B2E700208DF80400FF
:104FB000FFE79DF8040041F20C21C2F200010968EC
:104FC00088422EDAFFE741F20820C2F200000068B2
:104FD0009DF8041050F8210090ED340AB2EE081A42
:104FE000B4EE410AF1EE10FA0DD0FFE741F20820CD
:104FF000C2F2000000689DF8041050F82100407BC8
:105000000E2807D1FFE740F20870C2F2000001212C
:105010000170FFE7FFE79DF8040001308DF8040000
:10502000C7E702B080BD000082B001200190019866
:1050300080F3138800F006FF80B59AB042F2EC309E
:10504000C2F2000046F20041C4F2000101600021FA
:1050500041608160C1600122027441748174112336
:10506000436182610523C361042303624263826357
:10507000C1630D900C910B92FCF71CFB0C991491E1
:10508000159116910B9A1792189140F2FF7319938C
:1050900014A90D9B0A901846FBF7ECFF4FF08041D6
:1050A0000E910C990F91022210920B9B1193129169
:1050B00013910EA9DDF834C0099060460892FBF701
:1050C000D9FF69460C9A0A600D990790084608991D
:1050D000089A0C9BFCF72AF840210D9A069010467E
:1050E0000B9AFCF757F80D9905900846FCF7F4FE6B
:1050F0000D99049008460B990C9AFBF761FE4FF44A
:1051000060210D9A039010460C9AFBF759FE8021FE
:1051100007220D9B02901846FBF752FE1AB080BD85
:1051200080B59AB042F25040C2F2000046F600014B
:10513000C4F200010160002141608160C160012270
:105140000274417481741123436182610523C36138
:105150000423036242638263C1630D900C910B923E
:10516000FCF7A8FA0C991491159116910B9A1792C5
:10517000189140F2FF73199314A90D9B0A901846D9
:10518000FBF778FF4FF080410E910C990F910222AE
:1051900010920B9B1193129113910EA9DDF834C05C
:1051A000099060460892FBF765FF69460C9A0A6011
:1051B0000D99079008460899089A0C9BFBF7B6FFD3
:1051C00040210D9A069010460B9AFBF7E3FF0D99CC
:1051D00005900846FCF780FE0D99049008460B994F
:1051E0000C9AFBF7EDFD4FF460210D9A03901046E9
:1051F0000C9AFBF7E5FD802107220D9B02901846D3
:10520000FBF7DEFD1AB080BD80B592B042F2B4402B
:10521000C2F2000046F60041C4F200010160002124
:1052200041608160C1600122027441748174112364
:10523000436182610523C361042303624263816386
:10524000C1630B900A910992FCF734FA0A990C9108
:105250000D910E91099A0F92109140F2FF731193E4
:105260000CA90B9B08901846FBF704FF69460A9AA5
:105270000A6002210B9B079018460691069A0A9B2A
:10528000FBF754FF40210B9A05901046099AFBF753
:1052900081FF0B9904900846FCF71EFE0B990390C2
:1052A000084609990A9AFBF78BFD4FF460210B9A87
:1052B000029010460A9AFBF783FD802107220B9B80
:1052C00001901846FBF77CFD12B080BD70470000CE
:1052D0007047000080B582B042F6E230C2F20000B2
:1052E000009002F01BFE009802F062FE00208DF894
:1052F0000700FFE79DF8070041F20001C2F200013C
:10530000096888424FDAFFE742F6E230C2F2000055
:105310002A3006F05DFE002822D0FFE740F68830F4
:10532000C2F20000007801281AD1FFE741F2040020
:10533000C2F2000000689DF8071050F821000079C3
:1053400000280DD1FFE741F20400C2F2000000681E
:105350009DF8071050F821000168096988471BE093
:1053600041F20400C2F2000000689DF8071050F8F6
:1053700021004079C00700280DD0FFE741F204006A
:10538000C2F2000000689DF8071050F82100016883
:1053900009698847FFE7FFE7FFE79DF8070001304D
:1053A0008DF80700A6E700F0DBF940F68830C2F27E
:1053B00000000078002807D1FFE741F20C30C2F26C
:1053C000000005F07FF8FFE741F20C30C2F2000068
:1053D00005F0FEF800208DF80600FFE79DF80600B6
:1053E00042F6B431C2F200010978884212DAFFE7CE
:1053F00042F6B830C2F2000000689DF8061050F87E
:10540000210006F0C5FDFFE79DF8060001308DF88C
:105410000600E3E742F6E230C2F200002A3006F06E
:10542000D7FD002807D1FFE740F68830C2F2000020
:1054300000210170FFE742F6E230C2F20000C07ABC
:1054400002280DD1FFE742F6E230C2F2000090F9E7
:105450000E000130002803D1FFE7FFF7E5FDFFE76D
:1054600002B080BD704700002DE9F043ADB02B9035
:105470002A912B9842F2EC31C2F20001884245D1C8
:10548000FFE72A98016842688368D0F80CC0D0F81A
:1054900010E044692494CDF88CE0CDF888C02193C5
:1054A00020921F918169C269036AD0F824C0806A82
:1054B0002990CDF8A0C02793269225911F99209A74
:1054C000219B2298DDF88CC0DDF890E0259C269D7C
:1054D000279E289FDDF8A480E946C9F81C80C9F8FA
:1054E0001870C9F81460C9F81050C9F80C40C9F810
:1054F00008E0C9F804C0C9F8000042F69840C2F2BA
:10550000000003F059FE8DF8B30095E02B9842F2AD
:105510005041C2F20001884247D1FFE72A98016852
:1055200042688368D0F80CC0D0F810E04469199440
:10553000CDF860E0CDF85CC01693159214918169A6
:10554000C269036AD0F824C0806A1E90CDF874C086
:105550001C931B921A911499159A169B1798DDF8B3
:1055600060C0DDF864E01A9C1B9D1C9E1D9FDDF849
:105570007880E946C9F81C80C9F81870C9F8146029
:10558000C9F81050C9F80C40C9F808E0C9F804C0BF
:10559000C9F8000042F69840C2F2000000F51C7005
:1055A00003F00AFE8DF8B30046E02A9801684268CD
:1055B0008368D0F80CC0D0F810E044690E94CDF8A0
:1055C00034E0CDF830C00B930A9209918169C26929
:1055D000036AD0F824C0806A1390CDF848C01193B4
:1055E00010920F9109990A9A0B9B0C98DDF834C020
:1055F000DDF838E00F9C109D119E129FDDF84C8065
:10560000E946C9F81C80C9F81870C9F81460C9F8CF
:105610001050C9F80C40C9F808E0C9F804C0C9F82E
:10562000000042F69840C2F2000000F59C6003F0D2
:10563000C3FD8DF8B300FFE79DF8B3002DB0BDE8C2
:10564000F083000080B582B0042000F029FCFFE761
:1056500000F01EFC042801D0FFE7F9E701F00EFA84
:1056600000F020FBFFE700F04DFB012801D0FFE731
:10567000F9E700F023FCFFE700F0ACFD012801D0C2
:10568000FFE7F9E700F018FBFFE700F043FB012814
:1056900001D0FFE7F9E7032010215522002301F094
:1056A00073F901F08DF900F011FBFFE700F03AFB10
:1056B000012801D0FFE7F9E7032000F0B3FE8020C6
:1056C00000F0A2FEFFE700F097FE0C2801D0FFE7F4
:1056D000F9E74EF6FC50CEF20000016841F080710F
:1056E000016041F20000CEF20000016841F00101CA
:1056F000016041F20400CEF2000000210160FFE7EA
:1057000041F20400CEF200000068632801D8FFE7F0
:10571000F6E70020019000F077FE019800F0ACFE63
:10572000019800F0B7FE4FF68060C0F62120FDF72B
:1057300081FA4FF0007001F0BBF8019801F04EF8CB
:105740004FF4403001F0C2F84FF4402001F0BEF8B1
:105750004FF4401001F0BAF802B080BD0000000024
:105760002DE9F047ACB040F20830C2F2000002F080
:1057700073FD40F24040C2F200000078002843D19F
:10578000FFE740F20830C2F2000001694269836914
:10579000D0F81CC0D0F820E0406A42F65434C2F27F
:1057A00000046061C4F810E0C4F80CC0A36062603B
:1057B000216020686168A268E368D4F810C0D4F85A
:1057C00014E043F28045C2F20005C5F814E0C5F8C4
:1057D00010C0EB60AA606960286020680A95FAF73B
:1057E00090FF41EC100B9FED661B53EC112B51EC1D
:1057F000100BFAF7B3FD41EC100B51EC100BFAF75C
:1058000093FF0A990860FFE740F24040C2F20000AF
:105810000078022840F0AF80FFE742F65430C2F231
:105820000000016842688368D0F80CC0D0F810E02E
:1058300040692290CDF884E0CDF880C01F931E927D
:105840001D9143F28040C2F2000001684268836803
:10585000D0F80CC0D0F810E040691C90CDF86CE096
:10586000CDF868C01993189217911D9A1E9B1F9826
:105870002099DDF884C0DDF888E0179C189D199EFA
:105880001A9FDDF86C80DDF87090EA46CAF8249023
:10589000CAF82080CAF81C70CAF81860CAF81450F8
:1058A000CAF81040CAF80CE0CAF808C0CAF80410D8
:1058B000CAF8000040F2D831C2F2000123A8B7EEC6
:1058C000000AFEF707FC23982499259A269BDDF809
:1058D0009CC0DDF8A0E043F25C44C2F20004C4F8CE
:1058E00014E0C4F810C0E360A260616020602998F1
:1058F0002A992B9A2262E161A06120686168A268FE
:10590000E368D4F810C0D4F814E0CDF84CE0CDF83A
:1059100048C0119310920F910E90A069E169226A1C
:105920001692159114900BA80AF066FA0E990F9A28
:10593000109B1198DDF848C0DDF84CE0149C159DD3
:10594000169E9DED0B0ADDED0C0A9DED0D1A6F46BE
:105950004FF00008C7F818807E613D61FC60C7F811
:1059600008E0C7F804C0386040F20830C2F2000016
:1059700003F072F8FFE72CB0BDE8F08700BF00BF6E
:105980009A9999999999C93F81B000208DF803009F
:10599000FFE79DF8030040F24841C2F200010968A8
:1059A000884212DAFFE740F24440C2F20000006889
:1059B0009DF8031050F8210001214171FFE79DF887
:1059C000030001308DF80300E3E701B070470000E9
:1059D00080B582B0019001984FF47A71484300F08D
:1059E00003F802B080BD000080B584B00390FEF7DC
:1059F00047FB01910090FFE7FEF742FB009A019BF5
:105A0000DDF80CC012EB0C0243F10003801A99413F
:105A100001D2FFE7F0E704B080BD000080B582B09E
:105A2000019000F047F800208DF80300FFE79DF893
:105A3000030040F24841C2F20001096888422CDAB2
:105A4000FFE740F24440C2F2000000689DF80310F6
:105A500050F82100019988420CD1FFE740F2444000
:105A6000C2F2000000689DF8031050F821000121E7
:105A700041710BE040F24440C2F2000000689DF822
:105A8000031050F8210000214171FFE7FFE79DF866
:105A9000030001308DF80300C9E743F2A840C2F2C9
:105AA00000000021CBF6807140F8201B08F06CF854
:105AB00002B080BD80B586B040F6D060C2F2000072
:105AC00040F6B072C2F2000200210590049107F086
:105AD00097FE9FED231AF7EE001A9FED220A059814
